{
  "_format": "hh-sol-artifact-1",
  "contractName": "GovernorContract",
  "sourceName": "contracts/governance_standard/GovernorContract.sol",
  "abi": [
    {
      "inputs": [
        {
          "internalType": "contract IVotes",
          "name": "_token",
          "type": "address"
        },
        {
          "internalType": "contract TimelockController",
          "name": "_timelock",
          "type": "address"
        },
        {
          "internalType": "uint256",
          "name": "_quorumPercentage",
          "type": "uint256"
        },
        {
          "internalType": "uint256",
          "name": "_votingPeriod",
          "type": "uint256"
        },
        {
          "internalType": "uint256",
          "name": "_votingDelay",
          "type": "uint256"
        }
      ],
      "stateMutability": "nonpayable",
      "type": "constructor"
    },
    {
      "inputs": [],
      "name": "Empty",
      "type": "error"
    },
    {
      "anonymous": false,
      "inputs": [
        {
          "indexed": false,
          "internalType": "uint256",
          "name": "proposalId",
          "type": "uint256"
        }
      ],
      "name": "ProposalCanceled",
      "type": "event"
    },
    {
      "anonymous": false,
      "inputs": [
        {
          "indexed": false,
          "internalType": "uint256",
          "name": "proposalId",
          "type": "uint256"
        },
        {
          "indexed": false,
          "internalType": "address",
          "name": "proposer",
          "type": "address"
        },
        {
          "indexed": false,
          "internalType": "address[]",
          "name": "targets",
          "type": "address[]"
        },
        {
          "indexed": false,
          "internalType": "uint256[]",
          "name": "values",
          "type": "uint256[]"
        },
        {
          "indexed": false,
          "internalType": "string[]",
          "name": "signatures",
          "type": "string[]"
        },
        {
          "indexed": false,
          "internalType": "bytes[]",
          "name": "calldatas",
          "type": "bytes[]"
        },
        {
          "indexed": false,
          "internalType": "uint256",
          "name": "startBlock",
          "type": "uint256"
        },
        {
          "indexed": false,
          "internalType": "uint256",
          "name": "endBlock",
          "type": "uint256"
        },
        {
          "indexed": false,
          "internalType": "string",
          "name": "description",
          "type": "string"
        }
      ],
      "name": "ProposalCreated",
      "type": "event"
    },
    {
      "anonymous": false,
      "inputs": [
        {
          "indexed": false,
          "internalType": "uint256",
          "name": "proposalId",
          "type": "uint256"
        }
      ],
      "name": "ProposalExecuted",
      "type": "event"
    },
    {
      "anonymous": false,
      "inputs": [
        {
          "indexed": false,
          "internalType": "uint256",
          "name": "proposalId",
          "type": "uint256"
        },
        {
          "indexed": false,
          "internalType": "uint256",
          "name": "eta",
          "type": "uint256"
        }
      ],
      "name": "ProposalQueued",
      "type": "event"
    },
    {
      "anonymous": false,
      "inputs": [
        {
          "indexed": false,
          "internalType": "uint256",
          "name": "oldProposalThreshold",
          "type": "uint256"
        },
        {
          "indexed": false,
          "internalType": "uint256",
          "name": "newProposalThreshold",
          "type": "uint256"
        }
      ],
      "name": "ProposalThresholdSet",
      "type": "event"
    },
    {
      "anonymous": false,
      "inputs": [
        {
          "indexed": false,
          "internalType": "uint256",
          "name": "oldQuorumNumerator",
          "type": "uint256"
        },
        {
          "indexed": false,
          "internalType": "uint256",
          "name": "newQuorumNumerator",
          "type": "uint256"
        }
      ],
      "name": "QuorumNumeratorUpdated",
      "type": "event"
    },
    {
      "anonymous": false,
      "inputs": [
        {
          "indexed": false,
          "internalType": "address",
          "name": "oldTimelock",
          "type": "address"
        },
        {
          "indexed": false,
          "internalType": "address",
          "name": "newTimelock",
          "type": "address"
        }
      ],
      "name": "TimelockChange",
      "type": "event"
    },
    {
      "anonymous": false,
      "inputs": [
        {
          "indexed": true,
          "internalType": "address",
          "name": "voter",
          "type": "address"
        },
        {
          "indexed": false,
          "internalType": "uint256",
          "name": "proposalId",
          "type": "uint256"
        },
        {
          "indexed": false,
          "internalType": "uint8",
          "name": "support",
          "type": "uint8"
        },
        {
          "indexed": false,
          "internalType": "uint256",
          "name": "weight",
          "type": "uint256"
        },
        {
          "indexed": false,
          "internalType": "string",
          "name": "reason",
          "type": "string"
        }
      ],
      "name": "VoteCast",
      "type": "event"
    },
    {
      "anonymous": false,
      "inputs": [
        {
          "indexed": true,
          "internalType": "address",
          "name": "voter",
          "type": "address"
        },
        {
          "indexed": false,
          "internalType": "uint256",
          "name": "proposalId",
          "type": "uint256"
        },
        {
          "indexed": false,
          "internalType": "uint8",
          "name": "support",
          "type": "uint8"
        },
        {
          "indexed": false,
          "internalType": "uint256",
          "name": "weight",
          "type": "uint256"
        },
        {
          "indexed": false,
          "internalType": "string",
          "name": "reason",
          "type": "string"
        },
        {
          "indexed": false,
          "internalType": "bytes",
          "name": "params",
          "type": "bytes"
        }
      ],
      "name": "VoteCastWithParams",
      "type": "event"
    },
    {
      "anonymous": false,
      "inputs": [
        {
          "indexed": false,
          "internalType": "uint256",
          "name": "oldVotingDelay",
          "type": "uint256"
        },
        {
          "indexed": false,
          "internalType": "uint256",
          "name": "newVotingDelay",
          "type": "uint256"
        }
      ],
      "name": "VotingDelaySet",
      "type": "event"
    },
    {
      "anonymous": false,
      "inputs": [
        {
          "indexed": false,
          "internalType": "uint256",
          "name": "oldVotingPeriod",
          "type": "uint256"
        },
        {
          "indexed": false,
          "internalType": "uint256",
          "name": "newVotingPeriod",
          "type": "uint256"
        }
      ],
      "name": "VotingPeriodSet",
      "type": "event"
    },
    {
      "inputs": [],
      "name": "BALLOT_TYPEHASH",
      "outputs": [
        {
          "internalType": "bytes32",
          "name": "",
          "type": "bytes32"
        }
      ],
      "stateMutability": "view",
      "type": "function"
    },
    {
      "inputs": [],
      "name": "COUNTING_MODE",
      "outputs": [
        {
          "internalType": "string",
          "name": "",
          "type": "string"
        }
      ],
      "stateMutability": "pure",
      "type": "function"
    },
    {
      "inputs": [],
      "name": "EXTENDED_BALLOT_TYPEHASH",
      "outputs": [
        {
          "internalType": "bytes32",
          "name": "",
          "type": "bytes32"
        }
      ],
      "stateMutability": "view",
      "type": "function"
    },
    {
      "inputs": [
        {
          "internalType": "uint256",
          "name": "proposalId",
          "type": "uint256"
        },
        {
          "internalType": "uint8",
          "name": "support",
          "type": "uint8"
        }
      ],
      "name": "castVote",
      "outputs": [
        {
          "internalType": "uint256",
          "name": "",
          "type": "uint256"
        }
      ],
      "stateMutability": "nonpayable",
      "type": "function"
    },
    {
      "inputs": [
        {
          "internalType": "uint256",
          "name": "proposalId",
          "type": "uint256"
        },
        {
          "internalType": "uint8",
          "name": "support",
          "type": "uint8"
        },
        {
          "internalType": "uint8",
          "name": "v",
          "type": "uint8"
        },
        {
          "internalType": "bytes32",
          "name": "r",
          "type": "bytes32"
        },
        {
          "internalType": "bytes32",
          "name": "s",
          "type": "bytes32"
        }
      ],
      "name": "castVoteBySig",
      "outputs": [
        {
          "internalType": "uint256",
          "name": "",
          "type": "uint256"
        }
      ],
      "stateMutability": "nonpayable",
      "type": "function"
    },
    {
      "inputs": [
        {
          "internalType": "uint256",
          "name": "proposalId",
          "type": "uint256"
        },
        {
          "internalType": "uint8",
          "name": "support",
          "type": "uint8"
        },
        {
          "internalType": "string",
          "name": "reason",
          "type": "string"
        }
      ],
      "name": "castVoteWithReason",
      "outputs": [
        {
          "internalType": "uint256",
          "name": "",
          "type": "uint256"
        }
      ],
      "stateMutability": "nonpayable",
      "type": "function"
    },
    {
      "inputs": [
        {
          "internalType": "uint256",
          "name": "proposalId",
          "type": "uint256"
        },
        {
          "internalType": "uint8",
          "name": "support",
          "type": "uint8"
        },
        {
          "internalType": "string",
          "name": "reason",
          "type": "string"
        },
        {
          "internalType": "bytes",
          "name": "params",
          "type": "bytes"
        }
      ],
      "name": "castVoteWithReasonAndParams",
      "outputs": [
        {
          "internalType": "uint256",
          "name": "",
          "type": "uint256"
        }
      ],
      "stateMutability": "nonpayable",
      "type": "function"
    },
    {
      "inputs": [
        {
          "internalType": "uint256",
          "name": "proposalId",
          "type": "uint256"
        },
        {
          "internalType": "uint8",
          "name": "support",
          "type": "uint8"
        },
        {
          "internalType": "string",
          "name": "reason",
          "type": "string"
        },
        {
          "internalType": "bytes",
          "name": "params",
          "type": "bytes"
        },
        {
          "internalType": "uint8",
          "name": "v",
          "type": "uint8"
        },
        {
          "internalType": "bytes32",
          "name": "r",
          "type": "bytes32"
        },
        {
          "internalType": "bytes32",
          "name": "s",
          "type": "bytes32"
        }
      ],
      "name": "castVoteWithReasonAndParamsBySig",
      "outputs": [
        {
          "internalType": "uint256",
          "name": "",
          "type": "uint256"
        }
      ],
      "stateMutability": "nonpayable",
      "type": "function"
    },
    {
      "inputs": [
        {
          "internalType": "address[]",
          "name": "targets",
          "type": "address[]"
        },
        {
          "internalType": "uint256[]",
          "name": "values",
          "type": "uint256[]"
        },
        {
          "internalType": "bytes[]",
          "name": "calldatas",
          "type": "bytes[]"
        },
        {
          "internalType": "bytes32",
          "name": "descriptionHash",
          "type": "bytes32"
        }
      ],
      "name": "execute",
      "outputs": [
        {
          "internalType": "uint256",
          "name": "",
          "type": "uint256"
        }
      ],
      "stateMutability": "payable",
      "type": "function"
    },
    {
      "inputs": [
        {
          "internalType": "address",
          "name": "account",
          "type": "address"
        },
        {
          "internalType": "uint256",
          "name": "blockNumber",
          "type": "uint256"
        }
      ],
      "name": "getVotes",
      "outputs": [
        {
          "internalType": "uint256",
          "name": "",
          "type": "uint256"
        }
      ],
      "stateMutability": "view",
      "type": "function"
    },
    {
      "inputs": [
        {
          "internalType": "address",
          "name": "account",
          "type": "address"
        },
        {
          "internalType": "uint256",
          "name": "blockNumber",
          "type": "uint256"
        },
        {
          "internalType": "bytes",
          "name": "params",
          "type": "bytes"
        }
      ],
      "name": "getVotesWithParams",
      "outputs": [
        {
          "internalType": "uint256",
          "name": "",
          "type": "uint256"
        }
      ],
      "stateMutability": "view",
      "type": "function"
    },
    {
      "inputs": [
        {
          "internalType": "uint256",
          "name": "proposalId",
          "type": "uint256"
        },
        {
          "internalType": "address",
          "name": "account",
          "type": "address"
        }
      ],
      "name": "hasVoted",
      "outputs": [
        {
          "internalType": "bool",
          "name": "",
          "type": "bool"
        }
      ],
      "stateMutability": "view",
      "type": "function"
    },
    {
      "inputs": [
        {
          "internalType": "address[]",
          "name": "targets",
          "type": "address[]"
        },
        {
          "internalType": "uint256[]",
          "name": "values",
          "type": "uint256[]"
        },
        {
          "internalType": "bytes[]",
          "name": "calldatas",
          "type": "bytes[]"
        },
        {
          "internalType": "bytes32",
          "name": "descriptionHash",
          "type": "bytes32"
        }
      ],
      "name": "hashProposal",
      "outputs": [
        {
          "internalType": "uint256",
          "name": "",
          "type": "uint256"
        }
      ],
      "stateMutability": "pure",
      "type": "function"
    },
    {
      "inputs": [],
      "name": "name",
      "outputs": [
        {
          "internalType": "string",
          "name": "",
          "type": "string"
        }
      ],
      "stateMutability": "view",
      "type": "function"
    },
    {
      "inputs": [
        {
          "internalType": "address",
          "name": "",
          "type": "address"
        },
        {
          "internalType": "address",
          "name": "",
          "type": "address"
        },
        {
          "internalType": "uint256[]",
          "name": "",
          "type": "uint256[]"
        },
        {
          "internalType": "uint256[]",
          "name": "",
          "type": "uint256[]"
        },
        {
          "internalType": "bytes",
          "name": "",
          "type": "bytes"
        }
      ],
      "name": "onERC1155BatchReceived",
      "outputs": [
        {
          "internalType": "bytes4",
          "name": "",
          "type": "bytes4"
        }
      ],
      "stateMutability": "nonpayable",
      "type": "function"
    },
    {
      "inputs": [
        {
          "internalType": "address",
          "name": "",
          "type": "address"
        },
        {
          "internalType": "address",
          "name": "",
          "type": "address"
        },
        {
          "internalType": "uint256",
          "name": "",
          "type": "uint256"
        },
        {
          "internalType": "uint256",
          "name": "",
          "type": "uint256"
        },
        {
          "internalType": "bytes",
          "name": "",
          "type": "bytes"
        }
      ],
      "name": "onERC1155Received",
      "outputs": [
        {
          "internalType": "bytes4",
          "name": "",
          "type": "bytes4"
        }
      ],
      "stateMutability": "nonpayable",
      "type": "function"
    },
    {
      "inputs": [
        {
          "internalType": "address",
          "name": "",
          "type": "address"
        },
        {
          "internalType": "address",
          "name": "",
          "type": "address"
        },
        {
          "internalType": "uint256",
          "name": "",
          "type": "uint256"
        },
        {
          "internalType": "bytes",
          "name": "",
          "type": "bytes"
        }
      ],
      "name": "onERC721Received",
      "outputs": [
        {
          "internalType": "bytes4",
          "name": "",
          "type": "bytes4"
        }
      ],
      "stateMutability": "nonpayable",
      "type": "function"
    },
    {
      "inputs": [
        {
          "internalType": "uint256",
          "name": "proposalId",
          "type": "uint256"
        }
      ],
      "name": "proposalDeadline",
      "outputs": [
        {
          "internalType": "uint256",
          "name": "",
          "type": "uint256"
        }
      ],
      "stateMutability": "view",
      "type": "function"
    },
    {
      "inputs": [
        {
          "internalType": "uint256",
          "name": "proposalId",
          "type": "uint256"
        }
      ],
      "name": "proposalEta",
      "outputs": [
        {
          "internalType": "uint256",
          "name": "",
          "type": "uint256"
        }
      ],
      "stateMutability": "view",
      "type": "function"
    },
    {
      "inputs": [
        {
          "internalType": "uint256",
          "name": "proposalId",
          "type": "uint256"
        }
      ],
      "name": "proposalSnapshot",
      "outputs": [
        {
          "internalType": "uint256",
          "name": "",
          "type": "uint256"
        }
      ],
      "stateMutability": "view",
      "type": "function"
    },
    {
      "inputs": [],
      "name": "proposalThreshold",
      "outputs": [
        {
          "internalType": "uint256",
          "name": "",
          "type": "uint256"
        }
      ],
      "stateMutability": "view",
      "type": "function"
    },
    {
      "inputs": [
        {
          "internalType": "uint256",
          "name": "proposalId",
          "type": "uint256"
        }
      ],
      "name": "proposalVotes",
      "outputs": [
        {
          "internalType": "uint256",
          "name": "againstVotes",
          "type": "uint256"
        },
        {
          "internalType": "uint256",
          "name": "forVotes",
          "type": "uint256"
        },
        {
          "internalType": "uint256",
          "name": "abstainVotes",
          "type": "uint256"
        }
      ],
      "stateMutability": "view",
      "type": "function"
    },
    {
      "inputs": [
        {
          "internalType": "address[]",
          "name": "targets",
          "type": "address[]"
        },
        {
          "internalType": "uint256[]",
          "name": "values",
          "type": "uint256[]"
        },
        {
          "internalType": "bytes[]",
          "name": "calldatas",
          "type": "bytes[]"
        },
        {
          "internalType": "string",
          "name": "description",
          "type": "string"
        }
      ],
      "name": "propose",
      "outputs": [
        {
          "internalType": "uint256",
          "name": "",
          "type": "uint256"
        }
      ],
      "stateMutability": "nonpayable",
      "type": "function"
    },
    {
      "inputs": [
        {
          "internalType": "address[]",
          "name": "targets",
          "type": "address[]"
        },
        {
          "internalType": "uint256[]",
          "name": "values",
          "type": "uint256[]"
        },
        {
          "internalType": "bytes[]",
          "name": "calldatas",
          "type": "bytes[]"
        },
        {
          "internalType": "bytes32",
          "name": "descriptionHash",
          "type": "bytes32"
        }
      ],
      "name": "queue",
      "outputs": [
        {
          "internalType": "uint256",
          "name": "",
          "type": "uint256"
        }
      ],
      "stateMutability": "nonpayable",
      "type": "function"
    },
    {
      "inputs": [
        {
          "internalType": "uint256",
          "name": "blockNumber",
          "type": "uint256"
        }
      ],
      "name": "quorum",
      "outputs": [
        {
          "internalType": "uint256",
          "name": "",
          "type": "uint256"
        }
      ],
      "stateMutability": "view",
      "type": "function"
    },
    {
      "inputs": [],
      "name": "quorumDenominator",
      "outputs": [
        {
          "internalType": "uint256",
          "name": "",
          "type": "uint256"
        }
      ],
      "stateMutability": "view",
      "type": "function"
    },
    {
      "inputs": [
        {
          "internalType": "uint256",
          "name": "blockNumber",
          "type": "uint256"
        }
      ],
      "name": "quorumNumerator",
      "outputs": [
        {
          "internalType": "uint256",
          "name": "",
          "type": "uint256"
        }
      ],
      "stateMutability": "view",
      "type": "function"
    },
    {
      "inputs": [],
      "name": "quorumNumerator",
      "outputs": [
        {
          "internalType": "uint256",
          "name": "",
          "type": "uint256"
        }
      ],
      "stateMutability": "view",
      "type": "function"
    },
    {
      "inputs": [
        {
          "internalType": "address",
          "name": "target",
          "type": "address"
        },
        {
          "internalType": "uint256",
          "name": "value",
          "type": "uint256"
        },
        {
          "internalType": "bytes",
          "name": "data",
          "type": "bytes"
        }
      ],
      "name": "relay",
      "outputs": [],
      "stateMutability": "nonpayable",
      "type": "function"
    },
    {
      "inputs": [
        {
          "internalType": "uint256",
          "name": "newProposalThreshold",
          "type": "uint256"
        }
      ],
      "name": "setProposalThreshold",
      "outputs": [],
      "stateMutability": "nonpayable",
      "type": "function"
    },
    {
      "inputs": [
        {
          "internalType": "uint256",
          "name": "newVotingDelay",
          "type": "uint256"
        }
      ],
      "name": "setVotingDelay",
      "outputs": [],
      "stateMutability": "nonpayable",
      "type": "function"
    },
    {
      "inputs": [
        {
          "internalType": "uint256",
          "name": "newVotingPeriod",
          "type": "uint256"
        }
      ],
      "name": "setVotingPeriod",
      "outputs": [],
      "stateMutability": "nonpayable",
      "type": "function"
    },
    {
      "inputs": [
        {
          "internalType": "uint256",
          "name": "proposalId",
          "type": "uint256"
        }
      ],
      "name": "state",
      "outputs": [
        {
          "internalType": "enum IGovernor.ProposalState",
          "name": "",
          "type": "uint8"
        }
      ],
      "stateMutability": "view",
      "type": "function"
    },
    {
      "inputs": [
        {
          "internalType": "bytes4",
          "name": "interfaceId",
          "type": "bytes4"
        }
      ],
      "name": "supportsInterface",
      "outputs": [
        {
          "internalType": "bool",
          "name": "",
          "type": "bool"
        }
      ],
      "stateMutability": "view",
      "type": "function"
    },
    {
      "inputs": [],
      "name": "timelock",
      "outputs": [
        {
          "internalType": "address",
          "name": "",
          "type": "address"
        }
      ],
      "stateMutability": "view",
      "type": "function"
    },
    {
      "inputs": [],
      "name": "token",
      "outputs": [
        {
          "internalType": "contract IVotes",
          "name": "",
          "type": "address"
        }
      ],
      "stateMutability": "view",
      "type": "function"
    },
    {
      "inputs": [
        {
          "internalType": "uint256",
          "name": "newQuorumNumerator",
          "type": "uint256"
        }
      ],
      "name": "updateQuorumNumerator",
      "outputs": [],
      "stateMutability": "nonpayable",
      "type": "function"
    },
    {
      "inputs": [
        {
          "internalType": "contract TimelockController",
          "name": "newTimelock",
          "type": "address"
        }
      ],
      "name": "updateTimelock",
      "outputs": [],
      "stateMutability": "nonpayable",
      "type": "function"
    },
    {
      "inputs": [],
      "name": "version",
      "outputs": [
        {
          "internalType": "string",
          "name": "",
          "type": "string"
        }
      ],
      "stateMutability": "view",
      "type": "function"
    },
    {
      "inputs": [],
      "name": "votingDelay",
      "outputs": [
        {
          "internalType": "uint256",
          "name": "",
          "type": "uint256"
        }
      ],
      "stateMutability": "view",
      "type": "function"
    },
    {
      "inputs": [],
      "name": "votingPeriod",
      "outputs": [
        {
          "internalType": "uint256",
          "name": "",
          "type": "uint256"
        }
      ],
      "stateMutability": "view",
      "type": "function"
    },
    {
      "stateMutability": "payable",
      "type": "receive"
    }
  ],
  "bytecode": "0x6101606040523480156200001257600080fd5b5060405162007ccd38038062007ccd833981810160405281019062000038919062000ba8565b838386838560006040518060400160405280601081526020017f476f7665726e6f72436f6e7472616374000000000000000000000000000000008152508062000086620001ed60201b60201c565b60008280519060200120905060008280519060200120905060007f8b73c3c69bb8fe3d512ecc4cf759cc79239f7b179b0ffacaa9a75d522b39400f90508260e081815250508161010081815250504660a08181525050620000ef8184846200022a60201b60201c565b608081815250503073ffffffffffffffffffffffffffffffffffffffff1660c08173ffffffffffffffffffffffffffffffffffffffff16815250508061012081815250505050505050806000908051906020019062000150929190620009e6565b505062000163836200026660201b60201c565b6200017482620002ad60201b60201c565b62000185816200033a60201b60201c565b5050508073ffffffffffffffffffffffffffffffffffffffff166101408173ffffffffffffffffffffffffffffffffffffffff168152505050620001cf816200038160201b60201c565b50620001e1816200056060201b60201c565b505050505050620010b9565b60606040518060400160405280600181526020017f3100000000000000000000000000000000000000000000000000000000000000815250905090565b600083838346306040516020016200024795949392919062000c6d565b6040516020818303038152906040528051906020012090509392505050565b7fc565b045403dc03c2eea82b81a0465edad9e2e7fc4d97e11421c209da93d7a93600454826040516200029b92919062000cca565b60405180910390a18060048190555050565b60008111620002f3576040517f08c379a0000000000000000000000000000000000000000000000000000000008152600401620002ea9062000d7e565b60405180910390fd5b7f7e3f7f0708a84de9203036abaa450dccc85ad5ff52f78c170f3edb55cf5e8828600554826040516200032892919062000cca565b60405180910390a18060058190555050565b7fccb45da8d5717e6c4544694297c4ba5cf151d455c9bb0ed4fc7a38411bc05461600654826040516200036f92919062000cca565b60405180910390a18060068190555050565b620003916200060160201b60201c565b811115620003d6576040517f08c379a0000000000000000000000000000000000000000000000000000000008152600401620003cd9062000e3c565b60405180910390fd5b6000620003e86200060a60201b60201c565b9050600081141580156200040457506000600960000180549050145b15620005045760096000016040518060400160405280600063ffffffff1681526020016200043d846200064260201b62001e721760201c565b7bffffffffffffffffffffffffffffffffffffffffffffffffffffffff168152509080600181540180825580915050600190039060005260206000200160009091909190915060008201518160000160006101000a81548163ffffffff021916908363ffffffff16021790555060208201518160000160046101000a8154817bffffffffffffffffffffffffffffffffffffffffffffffffffffffff02191690837bffffffffffffffffffffffffffffffffffffffffffffffffffffffff16021790555050505b6200051f826009620006b060201b62001edd1790919060201c565b50507f0553476bf02ef2726e8ce5ced78d63e26e602e4a2257b1f559418e24b463399781836040516200055492919062000cca565b60405180910390a15050565b7f08f74ea46ef7894f65eabfb5e6e695de773a000b47c529ab559178069b226401600a60009054906101000a900473ffffffffffffffffffffffffffffffffffffffff1682604051620005b592919062000e5e565b60405180910390a180600a60006101000a81548173ffffffffffffffffffffffffffffffffffffffff021916908373ffffffffffffffffffffffffffffffffffffffff16021790555050565b60006064905090565b600080600960000180549050146200063957620006336009620008ee60201b620020df1760201c565b6200063d565b6008545b905090565b60007bffffffffffffffffffffffffffffffffffffffffffffffffffffffff8016821115620006a8576040517f08c379a00000000000000000000000000000000000000000000000000000000081526004016200069f9062000f01565b60405180910390fd5b819050919050565b6000806000846000018054905090506000620006d286620008ee60201b60201c565b90506000821180156200072e57504386600001600184620006f4919062000f52565b8154811062000708576200070762000f8d565b5b9060005260206000200160000160009054906101000a900463ffffffff1663ffffffff16145b15620007d2576200074a856200064260201b62001e721760201c565b866000016001846200075d919062000f52565b8154811062000771576200077062000f8d565b5b9060005260206000200160000160046101000a8154817bffffffffffffffffffffffffffffffffffffffffffffffffffffffff02191690837bffffffffffffffffffffffffffffffffffffffffffffffffffffffff160217905550620008df565b856000016040518060400160405280620007f7436200099060201b6200217a1760201c565b63ffffffff16815260200162000818886200064260201b62001e721760201c565b7bffffffffffffffffffffffffffffffffffffffffffffffffffffffff168152509080600181540180825580915050600190039060005260206000200160009091909190915060008201518160000160006101000a81548163ffffffff021916908363ffffffff16021790555060208201518160000160046101000a8154817bffffffffffffffffffffffffffffffffffffffffffffffffffffffff02191690837bffffffffffffffffffffffffffffffffffffffffffffffffffffffff16021790555050505b80859350935050509250929050565b600080826000018054905090506000811462000967578260000160018262000917919062000f52565b815481106200092b576200092a62000f8d565b5b9060005260206000200160000160049054906101000a90047bffffffffffffffffffffffffffffffffffffffffffffffffffffffff166200096a565b60005b7bffffffffffffffffffffffffffffffffffffffffffffffffffffffff16915050919050565b600063ffffffff8016821115620009de576040517f08c379a0000000000000000000000000000000000000000000000000000000008152600401620009d59062001032565b60405180910390fd5b819050919050565b828054620009f49062001083565b90600052602060002090601f01602090048101928262000a18576000855562000a64565b82601f1062000a3357805160ff191683800117855562000a64565b8280016001018555821562000a64579182015b8281111562000a6357825182559160200191906001019062000a46565b5b50905062000a73919062000a77565b5090565b5b8082111562000a9257600081600090555060010162000a78565b5090565b600080fd5b600073ffffffffffffffffffffffffffffffffffffffff82169050919050565b600062000ac88262000a9b565b9050919050565b600062000adc8262000abb565b9050919050565b62000aee8162000acf565b811462000afa57600080fd5b50565b60008151905062000b0e8162000ae3565b92915050565b600062000b218262000a9b565b9050919050565b600062000b358262000b14565b9050919050565b62000b478162000b28565b811462000b5357600080fd5b50565b60008151905062000b678162000b3c565b92915050565b6000819050919050565b62000b828162000b6d565b811462000b8e57600080fd5b50565b60008151905062000ba28162000b77565b92915050565b600080600080600060a0868803121562000bc75762000bc662000a96565b5b600062000bd78882890162000afd565b955050602062000bea8882890162000b56565b945050604062000bfd8882890162000b91565b935050606062000c108882890162000b91565b925050608062000c238882890162000b91565b9150509295509295909350565b6000819050919050565b62000c458162000c30565b82525050565b62000c568162000b6d565b82525050565b62000c678162000abb565b82525050565b600060a08201905062000c84600083018862000c3a565b62000c93602083018762000c3a565b62000ca2604083018662000c3a565b62000cb1606083018562000c4b565b62000cc0608083018462000c5c565b9695505050505050565b600060408201905062000ce1600083018562000c4b565b62000cf0602083018462000c4b565b9392505050565b600082825260208201905092915050565b7f476f7665726e6f7253657474696e67733a20766f74696e6720706572696f642060008201527f746f6f206c6f7700000000000000000000000000000000000000000000000000602082015250565b600062000d6660278362000cf7565b915062000d738262000d08565b604082019050919050565b6000602082019050818103600083015262000d998162000d57565b9050919050565b7f476f7665726e6f72566f74657351756f72756d4672616374696f6e3a2071756f60008201527f72756d4e756d657261746f72206f7665722071756f72756d44656e6f6d696e6160208201527f746f720000000000000000000000000000000000000000000000000000000000604082015250565b600062000e2460438362000cf7565b915062000e318262000da0565b606082019050919050565b6000602082019050818103600083015262000e578162000e15565b9050919050565b600060408201905062000e75600083018562000c5c565b62000e84602083018462000c5c565b9392505050565b7f53616665436173743a2076616c756520646f65736e27742066697420696e203260008201527f3234206269747300000000000000000000000000000000000000000000000000602082015250565b600062000ee960278362000cf7565b915062000ef68262000e8b565b604082019050919050565b6000602082019050818103600083015262000f1c8162000eda565b9050919050565b7f4e487b7100000000000000000000000000000000000000000000000000000000600052601160045260246000fd5b600062000f5f8262000b6d565b915062000f6c8362000b6d565b92508282101562000f825762000f8162000f23565b5b828203905092915050565b7f4e487b7100000000000000000000000000000000000000000000000000000000600052603260045260246000fd5b7f53616665436173743a2076616c756520646f65736e27742066697420696e203360008201527f3220626974730000000000000000000000000000000000000000000000000000602082015250565b60006200101a60268362000cf7565b9150620010278262000fbc565b604082019050919050565b600060208201905081810360008301526200104d816200100b565b9050919050565b7f4e487b7100000000000000000000000000000000000000000000000000000000600052602260045260246000fd5b600060028204905060018216806200109c57607f821691505b60208210811415620010b357620010b262001054565b5b50919050565b60805160a05160c05160e051610100516101205161014051616bab6200112260003960008181611e5001528181612f4701526131cf015260006134a4015260006134e6015260006134c5015260006133fa01526000613450015260006134790152616bab6000f3fe60806040526004361061024a5760003560e01c80637b3c71d311610139578063c28bc2fa116100b6578063ea0217cf1161007a578063ea0217cf146109cb578063eb9019d4146109f4578063ece40cc114610a31578063f23a6e6114610a5a578063f8ce560a14610a97578063fc0c546a14610ad457610290565b8063c28bc2fa146108e4578063c59057e41461090d578063d33219b41461094a578063dd4e2ba514610975578063deaaa7cc146109a057610290565b8063a890c910116100fd578063a890c910146107d9578063ab58fb8e14610802578063b58131b01461083f578063bc197c811461086a578063c01f9e37146108a757610290565b80637b3c71d3146106cc5780637d5e81e21461070957806397c3d334146107465780639a802a6d14610771578063a7713a70146107ae57610290565b80633932abb1116101c757806354fd4d501161018b57806354fd4d50146105c157806356781388146105ec5780635f398a141461062957806360c4247f1461066657806370b0f660146106a357610290565b80633932abb1146104a05780633bccf4fd146104cb5780633e4f49e6146105085780634385963214610545578063544ffc9c1461058257610290565b8063150b7a021161020e578063150b7a021461038e578063160cbed7146103cb5780632656227d146104085780632d63f693146104385780632fe3e2611461047557610290565b806301ffc9a71461029557806302a251a3146102d257806303420181146102fd57806306f3f9e61461033a57806306fdde031461036357610290565b36610290573073ffffffffffffffffffffffffffffffffffffffff1661026e610aff565b73ffffffffffffffffffffffffffffffffffffffff161461028e57600080fd5b005b600080fd5b3480156102a157600080fd5b506102bc60048036038101906102b7919061410e565b610b0e565b6040516102c99190614156565b60405180910390f35b3480156102de57600080fd5b506102e7610b20565b6040516102f4919061418a565b60405180910390f35b34801561030957600080fd5b50610324600480360381019061031f91906143e6565b610b2f565b604051610331919061418a565b60405180910390f35b34801561034657600080fd5b50610361600480360381019061035c91906144c4565b610c14565b005b34801561036f57600080fd5b50610378610d10565b6040516103859190614579565b60405180910390f35b34801561039a57600080fd5b506103b560048036038101906103b091906145f9565b610da2565b6040516103c2919061468b565b60405180910390f35b3480156103d757600080fd5b506103f260048036038101906103ed919061490d565b610db6565b6040516103ff919061418a565b60405180910390f35b610422600480360381019061041d919061490d565b61108e565b60405161042f919061418a565b60405180910390f35b34801561044457600080fd5b5061045f600480360381019061045a91906144c4565b6111db565b60405161046c919061418a565b60405180910390f35b34801561048157600080fd5b5061048a611249565b60405161049791906149d7565b60405180910390f35b3480156104ac57600080fd5b506104b561126d565b6040516104c2919061418a565b60405180910390f35b3480156104d757600080fd5b506104f260048036038101906104ed91906149f2565b61127c565b6040516104ff919061418a565b60405180910390f35b34801561051457600080fd5b5061052f600480360381019061052a91906144c4565b611306565b60405161053c9190614ae4565b60405180910390f35b34801561055157600080fd5b5061056c60048036038101906105679190614aff565b611318565b6040516105799190614156565b60405180910390f35b34801561058e57600080fd5b506105a960048036038101906105a491906144c4565b611383565b6040516105b893929190614b3f565b60405180910390f35b3480156105cd57600080fd5b506105d66113bb565b6040516105e39190614579565b60405180910390f35b3480156105f857600080fd5b50610613600480360381019061060e9190614b76565b6113f8565b604051610620919061418a565b60405180910390f35b34801561063557600080fd5b50610650600480360381019061064b9190614bb6565b611429565b60405161065d919061418a565b60405180910390f35b34801561067257600080fd5b5061068d600480360381019061068891906144c4565b611493565b60405161069a919061418a565b60405180910390f35b3480156106af57600080fd5b506106ca60048036038101906106c591906144c4565b6115e0565b005b3480156106d857600080fd5b506106f360048036038101906106ee9190614c5a565b6116dc565b604051610700919061418a565b60405180910390f35b34801561071557600080fd5b50610730600480360381019061072b9190614d6f565b611744565b60405161073d919061418a565b60405180910390f35b34801561075257600080fd5b5061075b61175c565b604051610768919061418a565b60405180910390f35b34801561077d57600080fd5b5061079860048036038101906107939190614e46565b611765565b6040516107a5919061418a565b60405180910390f35b3480156107ba57600080fd5b506107c361177b565b6040516107d0919061418a565b60405180910390f35b3480156107e557600080fd5b5061080060048036038101906107fb9190614f05565b6117a4565b005b34801561080e57600080fd5b50610829600480360381019061082491906144c4565b6118a0565b604051610836919061418a565b60405180910390f35b34801561084b57600080fd5b5061085461197c565b604051610861919061418a565b60405180910390f35b34801561087657600080fd5b50610891600480360381019061088c9190614f32565b61198b565b60405161089e919061468b565b60405180910390f35b3480156108b357600080fd5b506108ce60048036038101906108c991906144c4565b6119a0565b6040516108db919061418a565b60405180910390f35b3480156108f057600080fd5b5061090b60048036038101906109069190615057565b611a0e565b005b34801561091957600080fd5b50610934600480360381019061092f919061490d565b611b54565b604051610941919061418a565b60405180910390f35b34801561095657600080fd5b5061095f611b90565b60405161096c91906150da565b60405180910390f35b34801561098157600080fd5b5061098a611bba565b6040516109979190614579565b60405180910390f35b3480156109ac57600080fd5b506109b5611bf7565b6040516109c291906149d7565b60405180910390f35b3480156109d757600080fd5b506109f260048036038101906109ed91906144c4565b611c1b565b005b348015610a0057600080fd5b50610a1b6004803603810190610a1691906150f5565b611d17565b604051610a28919061418a565b60405180910390f35b348015610a3d57600080fd5b50610a586004803603810190610a5391906144c4565b611d2b565b005b348015610a6657600080fd5b50610a816004803603810190610a7c9190615135565b611e27565b604051610a8e919061468b565b60405180910390f35b348015610aa357600080fd5b50610abe6004803603810190610ab991906144c4565b611e3c565b604051610acb919061418a565b60405180910390f35b348015610ae057600080fd5b50610ae9611e4e565b604051610af6919061522b565b60405180910390f35b6000610b096121cd565b905090565b6000610b19826121f7565b9050919050565b6000610b2a612271565b905090565b600080610bb2610baa7fb3b3f3b703cd84ce352197dcff232b1b5d3cfb2025ce47cf04742d0651f1af888c8c8c8c604051610b6b929190615276565b60405180910390208b80519060200120604051602001610b8f95949392919061529e565b6040516020818303038152906040528051906020012061227b565b868686612295565b9050610c058a828b8b8b8080601f016020809104026020016040519081016040528093929190818152602001838380828437600081840152601f19601f820116905080830192505050505050508a6122c0565b91505098975050505050505050565b610c1c610aff565b73ffffffffffffffffffffffffffffffffffffffff16610c3a61247d565b73ffffffffffffffffffffffffffffffffffffffff1614610c90576040517f08c379a0000000000000000000000000000000000000000000000000000000008152600401610c879061533d565b60405180910390fd5b3073ffffffffffffffffffffffffffffffffffffffff16610caf610aff565b73ffffffffffffffffffffffffffffffffffffffff1614610d04576000610cd4612485565b604051610ce2929190615276565b604051809103902090505b80610cf86002612492565b14610d0257610ced565b505b610d0d8161256e565b50565b606060008054610d1f9061538c565b80601f0160208091040260200160405190810160405280929190818152602001828054610d4b9061538c565b8015610d985780601f10610d6d57610100808354040283529160200191610d98565b820191906000526020600020905b815481529060010190602001808311610d7b57829003601f168201915b5050505050905090565b600063150b7a0260e01b9050949350505050565b600080610dc586868686611b54565b905060046007811115610ddb57610dda614a6d565b5b610de482611306565b6007811115610df657610df5614a6d565b5b14610e36576040517f08c379a0000000000000000000000000000000000000000000000000000000008152600401610e2d90615430565b60405180910390fd5b6000600a60009054906101000a900473ffffffffffffffffffffffffffffffffffffffff1673ffffffffffffffffffffffffffffffffffffffff1663f27a0c926040518163ffffffff1660e01b815260040160206040518083038186803b158015610ea057600080fd5b505afa158015610eb4573d6000803e3d6000fd5b505050506040513d601f19601f82011682018060405250810190610ed89190615465565b9050600a60009054906101000a900473ffffffffffffffffffffffffffffffffffffffff1673ffffffffffffffffffffffffffffffffffffffff1663b1c5f4278888886000896040518663ffffffff1660e01b8152600401610f3e95949392919061576d565b60206040518083038186803b158015610f5657600080fd5b505afa158015610f6a573d6000803e3d6000fd5b505050506040513d601f19601f82011682018060405250810190610f8e91906157ea565b600b600084815260200190815260200160002081905550600a60009054906101000a900473ffffffffffffffffffffffffffffffffffffffff1673ffffffffffffffffffffffffffffffffffffffff16638f2a0bb0888888600089876040518763ffffffff1660e01b815260040161100b96959493929190615817565b600060405180830381600087803b15801561102557600080fd5b505af1158015611039573d6000803e3d6000fd5b505050507f9a2e42fd6722813d69113e7d0079d3d940171428df7373df9c7f7617cfda289282824261106b91906158bc565b604051611079929190615912565b60405180910390a18192505050949350505050565b60008061109d86868686611b54565b905060006110aa82611306565b9050600460078111156110c0576110bf614a6d565b5b8160078111156110d3576110d2614a6d565b5b14806111035750600560078111156110ee576110ed614a6d565b5b81600781111561110157611100614a6d565b5b145b611142576040517f08c379a000000000000000000000000000000000000000000000000000000000815260040161113990615430565b60405180910390fd5b600180600084815260200190815260200160002060020160006101000a81548160ff0219169083151502179055507f712ae1383f79ac853f8d882153778e0260ef8f03b504e2866e0593e04d2b291f8260405161119f919061418a565b60405180910390a16111b48288888888612722565b6111c18288888888612806565b6111ce828888888861281a565b8192505050949350505050565b6000611238600160008481526020019081526020016000206000016040518060200160405290816000820160009054906101000a900467ffffffffffffffff1667ffffffffffffffff1667ffffffffffffffff1681525050612875565b67ffffffffffffffff169050919050565b7fb3b3f3b703cd84ce352197dcff232b1b5d3cfb2025ce47cf04742d0651f1af8881565b6000611277612883565b905090565b6000806112dd6112d57f150214d74d59b7d1e90c73fc22ef3d991dd0a76b046543d4d80ab92d2a50328f89896040516020016112ba9392919061593b565b6040516020818303038152906040528051906020012061227b565b868686612295565b90506112fa8782886040518060200160405280600081525061288d565b91505095945050505050565b6000611311826128ad565b9050919050565b60006007600084815260200190815260200160002060030160008373ffffffffffffffffffffffffffffffffffffffff1673ffffffffffffffffffffffffffffffffffffffff16815260200190815260200160002060009054906101000a900460ff16905092915050565b600080600080600760008681526020019081526020016000209050806000015481600101548260020154935093509350509193909250565b60606040518060400160405280600181526020017f3100000000000000000000000000000000000000000000000000000000000000815250905090565b60008061140361247d565b90506114208482856040518060200160405280600081525061288d565b91505092915050565b60008061143461247d565b905061148787828888888080601f016020809104026020016040519081016040528093929190818152602001838380828437600081840152601f19601f82011690508083019250505050505050876122c0565b91505095945050505050565b600080600960000180549050905060008114156114b5576008549150506115db565b600060096000016001836114c99190615972565b815481106114da576114d96159a6565b5b906000526020600020016040518060400160405290816000820160009054906101000a900463ffffffff1663ffffffff1663ffffffff1681526020016000820160049054906101000a90047bffffffffffffffffffffffffffffffffffffffffffffffffffffffff167bffffffffffffffffffffffffffffffffffffffffffffffffffffffff167bffffffffffffffffffffffffffffffffffffffffffffffffffffffff1681525050905083816000015163ffffffff16116115c25780602001517bffffffffffffffffffffffffffffffffffffffffffffffffffffffff16925050506115db565b6115d6846009612a9f90919063ffffffff16565b925050505b919050565b6115e8610aff565b73ffffffffffffffffffffffffffffffffffffffff1661160661247d565b73ffffffffffffffffffffffffffffffffffffffff161461165c576040517f08c379a00000000000000000000000000000000000000000000000000000000081526004016116539061533d565b60405180910390fd5b3073ffffffffffffffffffffffffffffffffffffffff1661167b610aff565b73ffffffffffffffffffffffffffffffffffffffff16146116d05760006116a0612485565b6040516116ae929190615276565b604051809103902090505b806116c46002612492565b146116ce576116b9565b505b6116d981612bf7565b50565b6000806116e761247d565b905061173986828787878080601f016020809104026020016040519081016040528093929190818152602001838380828437600081840152601f19601f8201169050808301925050505050505061288d565b915050949350505050565b600061175285858585612c3c565b9050949350505050565b60006064905090565b6000611772848484612f43565b90509392505050565b6000806009600001805490501461179b5761179660096120df565b61179f565b6008545b905090565b6117ac610aff565b73ffffffffffffffffffffffffffffffffffffffff166117ca61247d565b73ffffffffffffffffffffffffffffffffffffffff1614611820576040517f08c379a00000000000000000000000000000000000000000000000000000000081526004016118179061533d565b60405180910390fd5b3073ffffffffffffffffffffffffffffffffffffffff1661183f610aff565b73ffffffffffffffffffffffffffffffffffffffff1614611894576000611864612485565b604051611872929190615276565b604051809103902090505b806118886002612492565b146118925761187d565b505b61189d81612ff9565b50565b600080600a60009054906101000a900473ffffffffffffffffffffffffffffffffffffffff1673ffffffffffffffffffffffffffffffffffffffff1663d45c4435600b6000868152602001908152602001600020546040518263ffffffff1660e01b815260040161191191906149d7565b60206040518083038186803b15801561192957600080fd5b505afa15801561193d573d6000803e3d6000fd5b505050506040513d601f19601f820116820180604052508101906119619190615465565b9050600181146119715780611974565b60005b915050919050565b6000611986613098565b905090565b600063bc197c8160e01b905095945050505050565b60006119fd600160008481526020019081526020016000206001016040518060200160405290816000820160009054906101000a900467ffffffffffffffff1667ffffffffffffffff1667ffffffffffffffff1681525050612875565b67ffffffffffffffff169050919050565b611a16610aff565b73ffffffffffffffffffffffffffffffffffffffff16611a3461247d565b73ffffffffffffffffffffffffffffffffffffffff1614611a8a576040517f08c379a0000000000000000000000000000000000000000000000000000000008152600401611a819061533d565b60405180910390fd5b3073ffffffffffffffffffffffffffffffffffffffff16611aa9610aff565b73ffffffffffffffffffffffffffffffffffffffff1614611afe576000611ace612485565b604051611adc929190615276565b604051809103902090505b80611af26002612492565b14611afc57611ae7565b505b611b4d8483838080601f016020809104026020016040519081016040528093929190818152602001838380828437600081840152601f19601f82011690508083019250505050505050856130a2565b5050505050565b600084848484604051602001611b6d94939291906159d5565b6040516020818303038152906040528051906020012060001c9050949350505050565b6000600a60009054906101000a900473ffffffffffffffffffffffffffffffffffffffff16905090565b60606040518060400160405280602081526020017f737570706f72743d627261766f2671756f72756d3d666f722c6162737461696e815250905090565b7f150214d74d59b7d1e90c73fc22ef3d991dd0a76b046543d4d80ab92d2a50328f81565b611c23610aff565b73ffffffffffffffffffffffffffffffffffffffff16611c4161247d565b73ffffffffffffffffffffffffffffffffffffffff1614611c97576040517f08c379a0000000000000000000000000000000000000000000000000000000008152600401611c8e9061533d565b60405180910390fd5b3073ffffffffffffffffffffffffffffffffffffffff16611cb6610aff565b73ffffffffffffffffffffffffffffffffffffffff1614611d0b576000611cdb612485565b604051611ce9929190615276565b604051809103902090505b80611cff6002612492565b14611d0957611cf4565b505b611d14816130d1565b50565b6000611d238383613159565b905092915050565b611d33610aff565b73ffffffffffffffffffffffffffffffffffffffff16611d5161247d565b73ffffffffffffffffffffffffffffffffffffffff1614611da7576040517f08c379a0000000000000000000000000000000000000000000000000000000008152600401611d9e9061533d565b60405180910390fd5b3073ffffffffffffffffffffffffffffffffffffffff16611dc6610aff565b73ffffffffffffffffffffffffffffffffffffffff1614611e1b576000611deb612485565b604051611df9929190615276565b604051809103902090505b80611e0f6002612492565b14611e1957611e04565b505b611e2481613175565b50565b600063f23a6e6160e01b905095945050505050565b6000611e47826131ba565b9050919050565b7f000000000000000000000000000000000000000000000000000000000000000081565b60007bffffffffffffffffffffffffffffffffffffffffffffffffffffffff8016821115611ed5576040517f08c379a0000000000000000000000000000000000000000000000000000000008152600401611ecc90615aa1565b60405180910390fd5b819050919050565b6000806000846000018054905090506000611ef7866120df565b9050600082118015611f4d57504386600001600184611f169190615972565b81548110611f2757611f266159a6565b5b9060005260206000200160000160009054906101000a900463ffffffff1663ffffffff16145b15611fdd57611f5b85611e72565b86600001600184611f6c9190615972565b81548110611f7d57611f7c6159a6565b5b9060005260206000200160000160046101000a8154817bffffffffffffffffffffffffffffffffffffffffffffffffffffffff02191690837bffffffffffffffffffffffffffffffffffffffffffffffffffffffff1602179055506120d0565b856000016040518060400160405280611ff54361217a565b63ffffffff16815260200161200988611e72565b7bffffffffffffffffffffffffffffffffffffffffffffffffffffffff168152509080600181540180825580915050600190039060005260206000200160009091909190915060008201518160000160006101000a81548163ffffffff021916908363ffffffff16021790555060208201518160000160046101000a8154817bffffffffffffffffffffffffffffffffffffffffffffffffffffffff02191690837bffffffffffffffffffffffffffffffffffffffffffffffffffffffff16021790555050505b80859350935050509250929050565b600080826000018054905090506000811461215157826000016001826121059190615972565b81548110612116576121156159a6565b5b9060005260206000200160000160049054906101000a90047bffffffffffffffffffffffffffffffffffffffffffffffffffffffff16612154565b60005b7bffffffffffffffffffffffffffffffffffffffffffffffffffffffff16915050919050565b600063ffffffff80168211156121c5576040517f08c379a00000000000000000000000000000000000000000000000000000000081526004016121bc90615b33565b60405180910390fd5b819050919050565b6000600a60009054906101000a900473ffffffffffffffffffffffffffffffffffffffff16905090565b60007f6e665ced000000000000000000000000000000000000000000000000000000007bffffffffffffffffffffffffffffffffffffffffffffffffffffffff1916827bffffffffffffffffffffffffffffffffffffffffffffffffffffffff1916148061226a575061226982613291565b5b9050919050565b6000600554905090565b600061228e6122886133f6565b83613510565b9050919050565b60008060006122a687878787613543565b915091506122b381613650565b8192505050949350505050565b600080600160008881526020019081526020016000209050600160078111156122ec576122eb614a6d565b5b6122f588611306565b600781111561230757612306614a6d565b5b14612347576040517f08c379a000000000000000000000000000000000000000000000000000000000815260040161233e90615bc5565b60405180910390fd5b60006123a687612396846000016040518060200160405290816000820160009054906101000a900467ffffffffffffffff1667ffffffffffffffff1667ffffffffffffffff1681525050612875565b67ffffffffffffffff1686612f43565b90506123b58888888488613825565b600084511415612418578673ffffffffffffffffffffffffffffffffffffffff167fb8e138887d0aa13bab447e82de9d5c1777041ecd21ca36ba824ff1e6c07ddda48988848960405161240b9493929190615be5565b60405180910390a261246f565b8673ffffffffffffffffffffffffffffffffffffffff167fe2babfbac5889a709b63bb7f598b324e08bc5a4fb9ec647fb3cbc9ec07eb87128988848989604051612466959493929190615c7b565b60405180910390a25b809250505095945050505050565b600033905090565b3660008036915091509091565b600061249d82613a2c565b156124d4576040517f3db2a12a00000000000000000000000000000000000000000000000000000000815260040160405180910390fd5b60008260000160009054906101000a9004600f0b905082600101600082600f0b600f0b815260200190815260200160002054915082600101600082600f0b600f0b815260200190815260200160002060009055600181018360000160006101000a8154816fffffffffffffffffffffffffffffffff0219169083600f0b6fffffffffffffffffffffffffffffffff16021790555050919050565b61257661175c565b8111156125b8576040517f08c379a00000000000000000000000000000000000000000000000000000000081526004016125af90615d74565b60405180910390fd5b60006125c261177b565b9050600081141580156125dd57506000600960000180549050145b156126cf5760096000016040518060400160405280600063ffffffff16815260200161260884611e72565b7bffffffffffffffffffffffffffffffffffffffffffffffffffffffff168152509080600181540180825580915050600190039060005260206000200160009091909190915060008201518160000160006101000a81548163ffffffff021916908363ffffffff16021790555060208201518160000160046101000a8154817bffffffffffffffffffffffffffffffffffffffffffffffffffffffff02191690837bffffffffffffffffffffffffffffffffffffffffffffffffffffffff16021790555050505b6126e3826009611edd90919063ffffffff16565b50507f0553476bf02ef2726e8ce5ced78d63e26e602e4a2257b1f559418e24b46339978183604051612716929190615912565b60405180910390a15050565b3073ffffffffffffffffffffffffffffffffffffffff16612741610aff565b73ffffffffffffffffffffffffffffffffffffffff16146127ff5760005b84518110156127fd573073ffffffffffffffffffffffffffffffffffffffff16858281518110612792576127916159a6565b5b602002602001015173ffffffffffffffffffffffffffffffffffffffff1614156127ec576127eb8382815181106127cc576127cb6159a6565b5b6020026020010151805190602001206002613a6190919063ffffffff16565b5b806127f690615d94565b905061275f565b505b5050505050565b6128138585858585613add565b5050505050565b3073ffffffffffffffffffffffffffffffffffffffff16612839610aff565b73ffffffffffffffffffffffffffffffffffffffff161461286e5761285e6002613a2c565b61286d5761286c6002613b7b565b5b5b5050505050565b600081600001519050919050565b6000600454905090565b60006128a38585858561289e613bfc565b6122c0565b9050949350505050565b6000806128b983613c13565b9050600460078111156128cf576128ce614a6d565b5b8160078111156128e2576128e1614a6d565b5b146128f05780915050612a9a565b6000600b60008581526020019081526020016000205490506000801b81141561291d578192505050612a9a565b600a60009054906101000a900473ffffffffffffffffffffffffffffffffffffffff1673ffffffffffffffffffffffffffffffffffffffff16632ab0f529826040518263ffffffff1660e01b815260040161297891906149d7565b60206040518083038186803b15801561299057600080fd5b505afa1580156129a4573d6000803e3d6000fd5b505050506040513d601f19601f820116820180604052508101906129c89190615e09565b156129d857600792505050612a9a565b600a60009054906101000a900473ffffffffffffffffffffffffffffffffffffffff1673ffffffffffffffffffffffffffffffffffffffff1663584b153e826040518263ffffffff1660e01b8152600401612a3391906149d7565b60206040518083038186803b158015612a4b57600080fd5b505afa158015612a5f573d6000803e3d6000fd5b505050506040513d601f19601f82011682018060405250810190612a839190615e09565b15612a9357600592505050612a9a565b6002925050505b919050565b6000438210612ae3576040517f08c379a0000000000000000000000000000000000000000000000000000000008152600401612ada90615e82565b60405180910390fd5b60008360000180549050905060005b81811015612b67576000612b068284613d28565b905084866000018281548110612b1f57612b1e6159a6565b5b9060005260206000200160000160009054906101000a900463ffffffff1663ffffffff161115612b5157809250612b61565b600181612b5e91906158bc565b91505b50612af2565b60008214612bcc5784600001600183612b809190615972565b81548110612b9157612b906159a6565b5b9060005260206000200160000160049054906101000a90047bffffffffffffffffffffffffffffffffffffffffffffffffffffffff16612bcf565b60005b7bffffffffffffffffffffffffffffffffffffffffffffffffffffffff169250505092915050565b7fc565b045403dc03c2eea82b81a0465edad9e2e7fc4d97e11421c209da93d7a9360045482604051612c2a929190615912565b60405180910390a18060048190555050565b6000612c4661197c565b612c63612c5161247d565b600143612c5e9190615972565b611d17565b1015612ca4576040517f08c379a0000000000000000000000000000000000000000000000000000000008152600401612c9b90615f14565b60405180910390fd5b6000612cb98686868680519060200120611b54565b90508451865114612cff576040517f08c379a0000000000000000000000000000000000000000000000000000000008152600401612cf690615fa6565b60405180910390fd5b8351865114612d43576040517f08c379a0000000000000000000000000000000000000000000000000000000008152600401612d3a90615fa6565b60405180910390fd5b6000865111612d87576040517f08c379a0000000000000000000000000000000000000000000000000000000008152600401612d7e90616012565b60405180910390fd5b6000600160008381526020019081526020016000209050612de7816000016040518060200160405290816000820160009054906101000a900467ffffffffffffffff1667ffffffffffffffff1667ffffffffffffffff1681525050613d4e565b612e26576040517f08c379a0000000000000000000000000000000000000000000000000000000008152600401612e1d906160a4565b60405180910390fd5b6000612e38612e3361126d565b613d68565b612e4143613d68565b612e4b91906160d8565b90506000612e5f612e5a610b20565b613d68565b82612e6a91906160d8565b9050612e828284600001613dbf90919063ffffffff16565b612e988184600101613dbf90919063ffffffff16565b7f7d84a6263ae0d98d3329bd7b46bb4e8d6f98cd35a7adb45c274c8b7fd5ebd5e084612ec261247d565b8b8b8d5167ffffffffffffffff811115612edf57612ede614285565b5b604051908082528060200260200182016040528015612f1257816020015b6060815260200190600190039081612efd5790505b508c88888e604051612f2c99989796959493929190616253565b60405180910390a183945050505050949350505050565b60007f000000000000000000000000000000000000000000000000000000000000000073ffffffffffffffffffffffffffffffffffffffff16633a46b1a885856040518363ffffffff1660e01b8152600401612fa0929190616303565b60206040518083038186803b158015612fb857600080fd5b505afa158015612fcc573d6000803e3d6000fd5b505050506040513d601f19601f82011682018060405250810190612ff09190615465565b90509392505050565b7f08f74ea46ef7894f65eabfb5e6e695de773a000b47c529ab559178069b226401600a60009054906101000a900473ffffffffffffffffffffffffffffffffffffffff168260405161304c92919061632c565b60405180910390a180600a60006101000a81548173ffffffffffffffffffffffffffffffffffffffff021916908373ffffffffffffffffffffffffffffffffffffffff16021790555050565b6000600654905090565b60606130c8848484604051806060016040528060298152602001616b4d60299139613dee565b90509392505050565b60008111613114576040517f08c379a000000000000000000000000000000000000000000000000000000000815260040161310b906163c7565b60405180910390fd5b7f7e3f7f0708a84de9203036abaa450dccc85ad5ff52f78c170f3edb55cf5e882860055482604051613147929190615912565b60405180910390a18060058190555050565b600061316d8383613168613bfc565b612f43565b905092915050565b7fccb45da8d5717e6c4544694297c4ba5cf151d455c9bb0ed4fc7a38411bc05461600654826040516131a8929190615912565b60405180910390a18060068190555050565b60006131c461175c565b6131cd83611493565b7f000000000000000000000000000000000000000000000000000000000000000073ffffffffffffffffffffffffffffffffffffffff16638e539e8c856040518263ffffffff1660e01b8152600401613226919061418a565b60206040518083038186803b15801561323e57600080fd5b505afa158015613252573d6000803e3d6000fd5b505050506040513d601f19601f820116820180604052508101906132769190615465565b61328091906163e7565b61328a9190616470565b9050919050565b6000639a802a6d60e01b630342018160e01b635f398a1460e01b7f79dd796f000000000000000000000000000000000000000000000000000000001818187bffffffffffffffffffffffffffffffffffffffffffffffffffffffff1916827bffffffffffffffffffffffffffffffffffffffffffffffffffffffff1916148061337757507f79dd796f000000000000000000000000000000000000000000000000000000007bffffffffffffffffffffffffffffffffffffffffffffffffffffffff1916827bffffffffffffffffffffffffffffffffffffffffffffffffffffffff1916145b806133df57507f4e2312e0000000000000000000000000000000000000000000000000000000007bffffffffffffffffffffffffffffffffffffffffffffffffffffffff1916827bffffffffffffffffffffffffffffffffffffffffffffffffffffffff1916145b806133ef57506133ee82613f02565b5b9050919050565b60007f000000000000000000000000000000000000000000000000000000000000000073ffffffffffffffffffffffffffffffffffffffff163073ffffffffffffffffffffffffffffffffffffffff1614801561347257507f000000000000000000000000000000000000000000000000000000000000000046145b1561349f577f0000000000000000000000000000000000000000000000000000000000000000905061350d565b61350a7f00000000000000000000000000000000000000000000000000000000000000007f00000000000000000000000000000000000000000000000000000000000000007f0000000000000000000000000000000000000000000000000000000000000000613f6c565b90505b90565b60008282604051602001613525929190616519565b60405160208183030381529060405280519060200120905092915050565b6000807f7fffffffffffffffffffffffffffffff5d576e7357a4501ddfe92f46681b20a08360001c111561357e576000600391509150613647565b601b8560ff16141580156135965750601c8560ff1614155b156135a8576000600491509150613647565b6000600187878787604051600081526020016040526040516135cd9493929190616550565b6020604051602081039080840390855afa1580156135ef573d6000803e3d6000fd5b505050602060405103519050600073ffffffffffffffffffffffffffffffffffffffff168173ffffffffffffffffffffffffffffffffffffffff16141561363e57600060019250925050613647565b80600092509250505b94509492505050565b6000600481111561366457613663614a6d565b5b81600481111561367757613676614a6d565b5b141561368257613822565b6001600481111561369657613695614a6d565b5b8160048111156136a9576136a8614a6d565b5b14156136ea576040517f08c379a00000000000000000000000000000000000000000000000000000000081526004016136e1906165e1565b60405180910390fd5b600260048111156136fe576136fd614a6d565b5b81600481111561371157613710614a6d565b5b1415613752576040517f08c379a00000000000000000000000000000000000000000000000000000000081526004016137499061664d565b60405180910390fd5b6003600481111561376657613765614a6d565b5b81600481111561377957613778614a6d565b5b14156137ba576040517f08c379a00000000000000000000000000000000000000000000000000000000081526004016137b1906166df565b60405180910390fd5b6004808111156137cd576137cc614a6d565b5b8160048111156137e0576137df614a6d565b5b1415613821576040517f08c379a000000000000000000000000000000000000000000000000000000000815260040161381890616771565b60405180910390fd5b5b50565b60006007600087815260200190815260200160002090508060030160008673ffffffffffffffffffffffffffffffffffffffff1673ffffffffffffffffffffffffffffffffffffffff16815260200190815260200160002060009054906101000a900460ff16156138cb576040517f08c379a00000000000000000000000000000000000000000000000000000000081526004016138c290616803565b60405180910390fd5b60018160030160008773ffffffffffffffffffffffffffffffffffffffff1673ffffffffffffffffffffffffffffffffffffffff16815260200190815260200160002060006101000a81548160ff0219169083151502179055506000600281111561393957613938614a6d565b5b60ff168460ff161415613966578281600001600082825461395a91906158bc565b92505081905550613a24565b6001600281111561397a57613979614a6d565b5b60ff168460ff1614156139a7578281600101600082825461399b91906158bc565b92505081905550613a23565b6002808111156139ba576139b9614a6d565b5b60ff168460ff1614156139e757828160020160008282546139db91906158bc565b92505081905550613a22565b6040517f08c379a0000000000000000000000000000000000000000000000000000000008152600401613a1990616895565b60405180910390fd5b5b5b505050505050565b60008160000160009054906101000a9004600f0b600f0b8260000160109054906101000a9004600f0b600f0b13159050919050565b60008260000160109054906101000a9004600f0b90508183600101600083600f0b600f0b815260200190815260200160002081905550600181018360000160106101000a8154816fffffffffffffffffffffffffffffffff0219169083600f0b6fffffffffffffffffffffffffffffffff160217905550505050565b600a60009054906101000a900473ffffffffffffffffffffffffffffffffffffffff1673ffffffffffffffffffffffffffffffffffffffff1663e38335e5348686866000876040518763ffffffff1660e01b8152600401613b4295949392919061576d565b6000604051808303818588803b158015613b5b57600080fd5b505af1158015613b6f573d6000803e3d6000fd5b50505050505050505050565b60008160000160006101000a8154816fffffffffffffffffffffffffffffffff0219169083600f0b6fffffffffffffffffffffffffffffffff16021790555060008160000160106101000a8154816fffffffffffffffffffffffffffffffff0219169083600f0b6fffffffffffffffffffffffffffffffff16021790555050565b606060405180602001604052806000815250905090565b6000806001600084815260200190815260200160002090508060020160009054906101000a900460ff1615613c4c576007915050613d23565b8060020160019054906101000a900460ff1615613c6d576002915050613d23565b6000613c78846111db565b90506000811415613cbe576040517f08c379a0000000000000000000000000000000000000000000000000000000008152600401613cb590616901565b60405180910390fd5b438110613cd057600092505050613d23565b6000613cdb856119a0565b9050438110613cf05760019350505050613d23565b613cf985613fa6565b8015613d0a5750613d0985613fed565b5b15613d1b5760049350505050613d23565b600393505050505b919050565b60006002828418613d399190616470565b828416613d4691906158bc565b905092915050565b600080826000015167ffffffffffffffff16149050919050565b600067ffffffffffffffff8016821115613db7576040517f08c379a0000000000000000000000000000000000000000000000000000000008152600401613dae90616993565b60405180910390fd5b819050919050565b808260000160006101000a81548167ffffffffffffffff021916908367ffffffffffffffff1602179055505050565b606082471015613e33576040517f08c379a0000000000000000000000000000000000000000000000000000000008152600401613e2a90616a25565b60405180910390fd5b613e3c85614018565b613e7b576040517f08c379a0000000000000000000000000000000000000000000000000000000008152600401613e7290616a91565b60405180910390fd5b6000808673ffffffffffffffffffffffffffffffffffffffff168587604051613ea49190616ae2565b60006040518083038185875af1925050503d8060008114613ee1576040519150601f19603f3d011682016040523d82523d6000602084013e613ee6565b606091505b5091509150613ef682828661403b565b92505050949350505050565b60007f01ffc9a7000000000000000000000000000000000000000000000000000000007bffffffffffffffffffffffffffffffffffffffffffffffffffffffff1916827bffffffffffffffffffffffffffffffffffffffffffffffffffffffff1916149050919050565b60008383834630604051602001613f87959493929190616af9565b6040516020818303038152906040528051906020012090509392505050565b60008060076000848152602001908152602001600020905080600201548160010154613fd291906158bc565b613fe3613fde856111db565b611e3c565b1115915050919050565b6000806007600084815260200190815260200160002090508060000154816001015411915050919050565b6000808273ffffffffffffffffffffffffffffffffffffffff163b119050919050565b6060831561404b5782905061409b565b60008351111561405e5782518084602001fd5b816040517f08c379a00000000000000000000000000000000000000000000000000000000081526004016140929190614579565b60405180910390fd5b9392505050565b6000604051905090565b600080fd5b600080fd5b60007fffffffff0000000000000000000000000000000000000000000000000000000082169050919050565b6140eb816140b6565b81146140f657600080fd5b50565b600081359050614108816140e2565b92915050565b600060208284031215614124576141236140ac565b5b6000614132848285016140f9565b91505092915050565b60008115159050919050565b6141508161413b565b82525050565b600060208201905061416b6000830184614147565b92915050565b6000819050919050565b61418481614171565b82525050565b600060208201905061419f600083018461417b565b92915050565b6141ae81614171565b81146141b957600080fd5b50565b6000813590506141cb816141a5565b92915050565b600060ff82169050919050565b6141e7816141d1565b81146141f257600080fd5b50565b600081359050614204816141de565b92915050565b600080fd5b600080fd5b600080fd5b60008083601f84011261422f5761422e61420a565b5b8235905067ffffffffffffffff81111561424c5761424b61420f565b5b60208301915083600182028301111561426857614267614214565b5b9250929050565b600080fd5b6000601f19601f8301169050919050565b7f4e487b7100000000000000000000000000000000000000000000000000000000600052604160045260246000fd5b6142bd82614274565b810181811067ffffffffffffffff821117156142dc576142db614285565b5b80604052505050565b60006142ef6140a2565b90506142fb82826142b4565b919050565b600067ffffffffffffffff82111561431b5761431a614285565b5b61432482614274565b9050602081019050919050565b82818337600083830152505050565b600061435361434e84614300565b6142e5565b90508281526020810184848401111561436f5761436e61426f565b5b61437a848285614331565b509392505050565b600082601f8301126143975761439661420a565b5b81356143a7848260208601614340565b91505092915050565b6000819050919050565b6143c3816143b0565b81146143ce57600080fd5b50565b6000813590506143e0816143ba565b92915050565b60008060008060008060008060e0898b031215614406576144056140ac565b5b60006144148b828c016141bc565b98505060206144258b828c016141f5565b975050604089013567ffffffffffffffff811115614446576144456140b1565b5b6144528b828c01614219565b9650965050606089013567ffffffffffffffff811115614475576144746140b1565b5b6144818b828c01614382565b94505060806144928b828c016141f5565b93505060a06144a38b828c016143d1565b92505060c06144b48b828c016143d1565b9150509295985092959890939650565b6000602082840312156144da576144d96140ac565b5b60006144e8848285016141bc565b91505092915050565b600081519050919050565b600082825260208201905092915050565b60005b8381101561452b578082015181840152602081019050614510565b8381111561453a576000848401525b50505050565b600061454b826144f1565b61455581856144fc565b935061456581856020860161450d565b61456e81614274565b840191505092915050565b600060208201905081810360008301526145938184614540565b905092915050565b600073ffffffffffffffffffffffffffffffffffffffff82169050919050565b60006145c68261459b565b9050919050565b6145d6816145bb565b81146145e157600080fd5b50565b6000813590506145f3816145cd565b92915050565b60008060008060808587031215614613576146126140ac565b5b6000614621878288016145e4565b9450506020614632878288016145e4565b9350506040614643878288016141bc565b925050606085013567ffffffffffffffff811115614664576146636140b1565b5b61467087828801614382565b91505092959194509250565b614685816140b6565b82525050565b60006020820190506146a0600083018461467c565b92915050565b600067ffffffffffffffff8211156146c1576146c0614285565b5b602082029050602081019050919050565b60006146e56146e0846146a6565b6142e5565b9050808382526020820190506020840283018581111561470857614707614214565b5b835b81811015614731578061471d88826145e4565b84526020840193505060208101905061470a565b5050509392505050565b600082601f8301126147505761474f61420a565b5b81356147608482602086016146d2565b91505092915050565b600067ffffffffffffffff82111561478457614783614285565b5b602082029050602081019050919050565b60006147a86147a384614769565b6142e5565b905080838252602082019050602084028301858111156147cb576147ca614214565b5b835b818110156147f457806147e088826141bc565b8452602084019350506020810190506147cd565b5050509392505050565b600082601f8301126148135761481261420a565b5b8135614823848260208601614795565b91505092915050565b600067ffffffffffffffff82111561484757614846614285565b5b602082029050602081019050919050565b600061486b6148668461482c565b6142e5565b9050808382526020820190506020840283018581111561488e5761488d614214565b5b835b818110156148d557803567ffffffffffffffff8111156148b3576148b261420a565b5b8086016148c08982614382565b85526020850194505050602081019050614890565b5050509392505050565b600082601f8301126148f4576148f361420a565b5b8135614904848260208601614858565b91505092915050565b60008060008060808587031215614927576149266140ac565b5b600085013567ffffffffffffffff811115614945576149446140b1565b5b6149518782880161473b565b945050602085013567ffffffffffffffff811115614972576149716140b1565b5b61497e878288016147fe565b935050604085013567ffffffffffffffff81111561499f5761499e6140b1565b5b6149ab878288016148df565b92505060606149bc878288016143d1565b91505092959194509250565b6149d1816143b0565b82525050565b60006020820190506149ec60008301846149c8565b92915050565b600080600080600060a08688031215614a0e57614a0d6140ac565b5b6000614a1c888289016141bc565b9550506020614a2d888289016141f5565b9450506040614a3e888289016141f5565b9350506060614a4f888289016143d1565b9250506080614a60888289016143d1565b9150509295509295909350565b7f4e487b7100000000000000000000000000000000000000000000000000000000600052602160045260246000fd5b60088110614aad57614aac614a6d565b5b50565b6000819050614abe82614a9c565b919050565b6000614ace82614ab0565b9050919050565b614ade81614ac3565b82525050565b6000602082019050614af96000830184614ad5565b92915050565b60008060408385031215614b1657614b156140ac565b5b6000614b24858286016141bc565b9250506020614b35858286016145e4565b9150509250929050565b6000606082019050614b54600083018661417b565b614b61602083018561417b565b614b6e604083018461417b565b949350505050565b60008060408385031215614b8d57614b8c6140ac565b5b6000614b9b858286016141bc565b9250506020614bac858286016141f5565b9150509250929050565b600080600080600060808688031215614bd257614bd16140ac565b5b6000614be0888289016141bc565b9550506020614bf1888289016141f5565b945050604086013567ffffffffffffffff811115614c1257614c116140b1565b5b614c1e88828901614219565b9350935050606086013567ffffffffffffffff811115614c4157614c406140b1565b5b614c4d88828901614382565b9150509295509295909350565b60008060008060608587031215614c7457614c736140ac565b5b6000614c82878288016141bc565b9450506020614c93878288016141f5565b935050604085013567ffffffffffffffff811115614cb457614cb36140b1565b5b614cc087828801614219565b925092505092959194509250565b600067ffffffffffffffff821115614ce957614ce8614285565b5b614cf282614274565b9050602081019050919050565b6000614d12614d0d84614cce565b6142e5565b905082815260208101848484011115614d2e57614d2d61426f565b5b614d39848285614331565b509392505050565b600082601f830112614d5657614d5561420a565b5b8135614d66848260208601614cff565b91505092915050565b60008060008060808587031215614d8957614d886140ac565b5b600085013567ffffffffffffffff811115614da757614da66140b1565b5b614db38782880161473b565b945050602085013567ffffffffffffffff811115614dd457614dd36140b1565b5b614de0878288016147fe565b935050604085013567ffffffffffffffff811115614e0157614e006140b1565b5b614e0d878288016148df565b925050606085013567ffffffffffffffff811115614e2e57614e2d6140b1565b5b614e3a87828801614d41565b91505092959194509250565b600080600060608486031215614e5f57614e5e6140ac565b5b6000614e6d868287016145e4565b9350506020614e7e868287016141bc565b925050604084013567ffffffffffffffff811115614e9f57614e9e6140b1565b5b614eab86828701614382565b9150509250925092565b6000614ec08261459b565b9050919050565b6000614ed282614eb5565b9050919050565b614ee281614ec7565b8114614eed57600080fd5b50565b600081359050614eff81614ed9565b92915050565b600060208284031215614f1b57614f1a6140ac565b5b6000614f2984828501614ef0565b91505092915050565b600080600080600060a08688031215614f4e57614f4d6140ac565b5b6000614f5c888289016145e4565b9550506020614f6d888289016145e4565b945050604086013567ffffffffffffffff811115614f8e57614f8d6140b1565b5b614f9a888289016147fe565b935050606086013567ffffffffffffffff811115614fbb57614fba6140b1565b5b614fc7888289016147fe565b925050608086013567ffffffffffffffff811115614fe857614fe76140b1565b5b614ff488828901614382565b9150509295509295909350565b60008083601f8401126150175761501661420a565b5b8235905067ffffffffffffffff8111156150345761503361420f565b5b6020830191508360018202830111156150505761504f614214565b5b9250929050565b60008060008060608587031215615071576150706140ac565b5b600061507f878288016145e4565b9450506020615090878288016141bc565b935050604085013567ffffffffffffffff8111156150b1576150b06140b1565b5b6150bd87828801615001565b925092505092959194509250565b6150d4816145bb565b82525050565b60006020820190506150ef60008301846150cb565b92915050565b6000806040838503121561510c5761510b6140ac565b5b600061511a858286016145e4565b925050602061512b858286016141bc565b9150509250929050565b600080600080600060a08688031215615151576151506140ac565b5b600061515f888289016145e4565b9550506020615170888289016145e4565b9450506040615181888289016141bc565b9350506060615192888289016141bc565b925050608086013567ffffffffffffffff8111156151b3576151b26140b1565b5b6151bf88828901614382565b9150509295509295909350565b6000819050919050565b60006151f16151ec6151e78461459b565b6151cc565b61459b565b9050919050565b6000615203826151d6565b9050919050565b6000615215826151f8565b9050919050565b6152258161520a565b82525050565b6000602082019050615240600083018461521c565b92915050565b600081905092915050565b600061525d8385615246565b935061526a838584614331565b82840190509392505050565b6000615283828486615251565b91508190509392505050565b615298816141d1565b82525050565b600060a0820190506152b360008301886149c8565b6152c0602083018761417b565b6152cd604083018661528f565b6152da60608301856149c8565b6152e760808301846149c8565b9695505050505050565b7f476f7665726e6f723a206f6e6c79476f7665726e616e63650000000000000000600082015250565b60006153276018836144fc565b9150615332826152f1565b602082019050919050565b600060208201905081810360008301526153568161531a565b9050919050565b7f4e487b7100000000000000000000000000000000000000000000000000000000600052602260045260246000fd5b600060028204905060018216806153a457607f821691505b602082108114156153b8576153b761535d565b5b50919050565b7f476f7665726e6f723a2070726f706f73616c206e6f742073756363657373667560008201527f6c00000000000000000000000000000000000000000000000000000000000000602082015250565b600061541a6021836144fc565b9150615425826153be565b604082019050919050565b600060208201905081810360008301526154498161540d565b9050919050565b60008151905061545f816141a5565b92915050565b60006020828403121561547b5761547a6140ac565b5b600061548984828501615450565b91505092915050565b600081519050919050565b600082825260208201905092915050565b6000819050602082019050919050565b6154c7816145bb565b82525050565b60006154d983836154be565b60208301905092915050565b6000602082019050919050565b60006154fd82615492565b615507818561549d565b9350615512836154ae565b8060005b8381101561554357815161552a88826154cd565b9750615535836154e5565b925050600181019050615516565b5085935050505092915050565b600081519050919050565b600082825260208201905092915050565b6000819050602082019050919050565b61558581614171565b82525050565b6000615597838361557c565b60208301905092915050565b6000602082019050919050565b60006155bb82615550565b6155c5818561555b565b93506155d08361556c565b8060005b838110156156015781516155e8888261558b565b97506155f3836155a3565b9250506001810190506155d4565b5085935050505092915050565b600081519050919050565b600082825260208201905092915050565b6000819050602082019050919050565b600081519050919050565b600082825260208201905092915050565b60006156618261563a565b61566b8185615645565b935061567b81856020860161450d565b61568481614274565b840191505092915050565b600061569b8383615656565b905092915050565b6000602082019050919050565b60006156bb8261560e565b6156c58185615619565b9350836020820285016156d78561562a565b8060005b8581101561571357848403895281516156f4858261568f565b94506156ff836156a3565b925060208a019950506001810190506156db565b50829750879550505050505092915050565b6000819050919050565b60008160001b9050919050565b600061575761575261574d84615725565b61572f565b6143b0565b9050919050565b6157678161573c565b82525050565b600060a082019050818103600083015261578781886154f2565b9050818103602083015261579b81876155b0565b905081810360408301526157af81866156b0565b90506157be606083018561575e565b6157cb60808301846149c8565b9695505050505050565b6000815190506157e4816143ba565b92915050565b600060208284031215615800576157ff6140ac565b5b600061580e848285016157d5565b91505092915050565b600060c082019050818103600083015261583181896154f2565b9050818103602083015261584581886155b0565b9050818103604083015261585981876156b0565b9050615868606083018661575e565b61587560808301856149c8565b61588260a083018461417b565b979650505050505050565b7f4e487b7100000000000000000000000000000000000000000000000000000000600052601160045260246000fd5b60006158c782614171565b91506158d283614171565b9250827fffffffffffffffffffffffffffffffffffffffffffffffffffffffffffffffff038211156159075761590661588d565b5b828201905092915050565b6000604082019050615927600083018561417b565b615934602083018461417b565b9392505050565b600060608201905061595060008301866149c8565b61595d602083018561417b565b61596a604083018461528f565b949350505050565b600061597d82614171565b915061598883614171565b92508282101561599b5761599a61588d565b5b828203905092915050565b7f4e487b7100000000000000000000000000000000000000000000000000000000600052603260045260246000fd5b600060808201905081810360008301526159ef81876154f2565b90508181036020830152615a0381866155b0565b90508181036040830152615a1781856156b0565b9050615a2660608301846149c8565b95945050505050565b7f53616665436173743a2076616c756520646f65736e27742066697420696e203260008201527f3234206269747300000000000000000000000000000000000000000000000000602082015250565b6000615a8b6027836144fc565b9150615a9682615a2f565b604082019050919050565b60006020820190508181036000830152615aba81615a7e565b9050919050565b7f53616665436173743a2076616c756520646f65736e27742066697420696e203360008201527f3220626974730000000000000000000000000000000000000000000000000000602082015250565b6000615b1d6026836144fc565b9150615b2882615ac1565b604082019050919050565b60006020820190508181036000830152615b4c81615b10565b9050919050565b7f476f7665726e6f723a20766f7465206e6f742063757272656e746c792061637460008201527f6976650000000000000000000000000000000000000000000000000000000000602082015250565b6000615baf6023836144fc565b9150615bba82615b53565b604082019050919050565b60006020820190508181036000830152615bde81615ba2565b9050919050565b6000608082019050615bfa600083018761417b565b615c07602083018661528f565b615c14604083018561417b565b8181036060830152615c268184614540565b905095945050505050565b600082825260208201905092915050565b6000615c4d8261563a565b615c578185615c31565b9350615c6781856020860161450d565b615c7081614274565b840191505092915050565b600060a082019050615c90600083018861417b565b615c9d602083018761528f565b615caa604083018661417b565b8181036060830152615cbc8185614540565b90508181036080830152615cd08184615c42565b90509695505050505050565b7f476f7665726e6f72566f74657351756f72756d4672616374696f6e3a2071756f60008201527f72756d4e756d657261746f72206f7665722071756f72756d44656e6f6d696e6160208201527f746f720000000000000000000000000000000000000000000000000000000000604082015250565b6000615d5e6043836144fc565b9150615d6982615cdc565b606082019050919050565b60006020820190508181036000830152615d8d81615d51565b9050919050565b6000615d9f82614171565b91507fffffffffffffffffffffffffffffffffffffffffffffffffffffffffffffffff821415615dd257615dd161588d565b5b600182019050919050565b615de68161413b565b8114615df157600080fd5b50565b600081519050615e0381615ddd565b92915050565b600060208284031215615e1f57615e1e6140ac565b5b6000615e2d84828501615df4565b91505092915050565b7f436865636b706f696e74733a20626c6f636b206e6f7420796574206d696e6564600082015250565b6000615e6c6020836144fc565b9150615e7782615e36565b602082019050919050565b60006020820190508181036000830152615e9b81615e5f565b9050919050565b7f476f7665726e6f723a2070726f706f73657220766f7465732062656c6f77207060008201527f726f706f73616c207468726573686f6c64000000000000000000000000000000602082015250565b6000615efe6031836144fc565b9150615f0982615ea2565b604082019050919050565b60006020820190508181036000830152615f2d81615ef1565b9050919050565b7f476f7665726e6f723a20696e76616c69642070726f706f73616c206c656e677460008201527f6800000000000000000000000000000000000000000000000000000000000000602082015250565b6000615f906021836144fc565b9150615f9b82615f34565b604082019050919050565b60006020820190508181036000830152615fbf81615f83565b9050919050565b7f476f7665726e6f723a20656d7074792070726f706f73616c0000000000000000600082015250565b6000615ffc6018836144fc565b915061600782615fc6565b602082019050919050565b6000602082019050818103600083015261602b81615fef565b9050919050565b7f476f7665726e6f723a2070726f706f73616c20616c726561647920657869737460008201527f7300000000000000000000000000000000000000000000000000000000000000602082015250565b600061608e6021836144fc565b915061609982616032565b604082019050919050565b600060208201905081810360008301526160bd81616081565b9050919050565b600067ffffffffffffffff82169050919050565b60006160e3826160c4565b91506160ee836160c4565b92508267ffffffffffffffff0382111561610b5761610a61588d565b5b828201905092915050565b600081519050919050565b600082825260208201905092915050565b6000819050602082019050919050565b600082825260208201905092915050565b600061615e826144f1565b6161688185616142565b935061617881856020860161450d565b61618181614274565b840191505092915050565b60006161988383616153565b905092915050565b6000602082019050919050565b60006161b882616116565b6161c28185616121565b9350836020820285016161d485616132565b8060005b8581101561621057848403895281516161f1858261618c565b94506161fc836161a0565b925060208a019950506001810190506161d8565b50829750879550505050505092915050565b600061623d616238616233846160c4565b6151cc565b614171565b9050919050565b61624d81616222565b82525050565b600061012082019050616269600083018c61417b565b616276602083018b6150cb565b8181036040830152616288818a6154f2565b9050818103606083015261629c81896155b0565b905081810360808301526162b081886161ad565b905081810360a08301526162c481876156b0565b90506162d360c0830186616244565b6162e060e0830185616244565b8181036101008301526162f38184614540565b90509a9950505050505050505050565b600060408201905061631860008301856150cb565b616325602083018461417b565b9392505050565b600060408201905061634160008301856150cb565b61634e60208301846150cb565b9392505050565b7f476f7665726e6f7253657474696e67733a20766f74696e6720706572696f642060008201527f746f6f206c6f7700000000000000000000000000000000000000000000000000602082015250565b60006163b16027836144fc565b91506163bc82616355565b604082019050919050565b600060208201905081810360008301526163e0816163a4565b9050919050565b60006163f282614171565b91506163fd83614171565b9250817fffffffffffffffffffffffffffffffffffffffffffffffffffffffffffffffff04831182151516156164365761643561588d565b5b828202905092915050565b7f4e487b7100000000000000000000000000000000000000000000000000000000600052601260045260246000fd5b600061647b82614171565b915061648683614171565b92508261649657616495616441565b5b828204905092915050565b600081905092915050565b7f1901000000000000000000000000000000000000000000000000000000000000600082015250565b60006164e26002836164a1565b91506164ed826164ac565b600282019050919050565b6000819050919050565b61651361650e826143b0565b6164f8565b82525050565b6000616524826164d5565b91506165308285616502565b6020820191506165408284616502565b6020820191508190509392505050565b600060808201905061656560008301876149c8565b616572602083018661528f565b61657f60408301856149c8565b61658c60608301846149c8565b95945050505050565b7f45434453413a20696e76616c6964207369676e61747572650000000000000000600082015250565b60006165cb6018836144fc565b91506165d682616595565b602082019050919050565b600060208201905081810360008301526165fa816165be565b9050919050565b7f45434453413a20696e76616c6964207369676e6174757265206c656e67746800600082015250565b6000616637601f836144fc565b915061664282616601565b602082019050919050565b600060208201905081810360008301526166668161662a565b9050919050565b7f45434453413a20696e76616c6964207369676e6174757265202773272076616c60008201527f7565000000000000000000000000000000000000000000000000000000000000602082015250565b60006166c96022836144fc565b91506166d48261666d565b604082019050919050565b600060208201905081810360008301526166f8816166bc565b9050919050565b7f45434453413a20696e76616c6964207369676e6174757265202776272076616c60008201527f7565000000000000000000000000000000000000000000000000000000000000602082015250565b600061675b6022836144fc565b9150616766826166ff565b604082019050919050565b6000602082019050818103600083015261678a8161674e565b9050919050565b7f476f7665726e6f72566f74696e6753696d706c653a20766f746520616c72656160008201527f6479206361737400000000000000000000000000000000000000000000000000602082015250565b60006167ed6027836144fc565b91506167f882616791565b604082019050919050565b6000602082019050818103600083015261681c816167e0565b9050919050565b7f476f7665726e6f72566f74696e6753696d706c653a20696e76616c696420766160008201527f6c756520666f7220656e756d20566f7465547970650000000000000000000000602082015250565b600061687f6035836144fc565b915061688a82616823565b604082019050919050565b600060208201905081810360008301526168ae81616872565b9050919050565b7f476f7665726e6f723a20756e6b6e6f776e2070726f706f73616c206964000000600082015250565b60006168eb601d836144fc565b91506168f6826168b5565b602082019050919050565b6000602082019050818103600083015261691a816168de565b9050919050565b7f53616665436173743a2076616c756520646f65736e27742066697420696e203660008201527f3420626974730000000000000000000000000000000000000000000000000000602082015250565b600061697d6026836144fc565b915061698882616921565b604082019050919050565b600060208201905081810360008301526169ac81616970565b9050919050565b7f416464726573733a20696e73756666696369656e742062616c616e636520666f60008201527f722063616c6c0000000000000000000000000000000000000000000000000000602082015250565b6000616a0f6026836144fc565b9150616a1a826169b3565b604082019050919050565b60006020820190508181036000830152616a3e81616a02565b9050919050565b7f416464726573733a2063616c6c20746f206e6f6e2d636f6e7472616374000000600082015250565b6000616a7b601d836144fc565b9150616a8682616a45565b602082019050919050565b60006020820190508181036000830152616aaa81616a6e565b9050919050565b6000616abc8261563a565b616ac68185615246565b9350616ad681856020860161450d565b80840191505092915050565b6000616aee8284616ab1565b915081905092915050565b600060a082019050616b0e60008301886149c8565b616b1b60208301876149c8565b616b2860408301866149c8565b616b35606083018561417b565b616b4260808301846150cb565b969550505050505056fe416464726573733a206c6f772d6c6576656c2063616c6c20776974682076616c7565206661696c6564a2646970667358221220f11d1f3a593918dc81734027ed77a9b53105898df1a88572e011f71578a893a164736f6c63430008090033",
  "linkReferences": {},
  "deployedLinkReferences": {}
}