{
  "address": "0xCf7Ed3AccA5a467e9e704C703E8D87F634fB0Fc9",
  "abi": [
    {
      "inputs": [
        {
          "internalType": "contract IVotes",
          "name": "_token",
          "type": "address"
        },
        {
          "internalType": "contract TimelockController",
          "name": "_timelock",
          "type": "address"
        },
        {
          "internalType": "uint256",
          "name": "_quorumPercentage",
          "type": "uint256"
        },
        {
          "internalType": "uint256",
          "name": "_votingPeriod",
          "type": "uint256"
        },
        {
          "internalType": "uint256",
          "name": "_votingDelay",
          "type": "uint256"
        }
      ],
      "stateMutability": "nonpayable",
      "type": "constructor"
    },
    {
      "inputs": [],
      "name": "Empty",
      "type": "error"
    },
    {
      "anonymous": false,
      "inputs": [
        {
          "indexed": false,
          "internalType": "uint256",
          "name": "proposalId",
          "type": "uint256"
        }
      ],
      "name": "ProposalCanceled",
      "type": "event"
    },
    {
      "anonymous": false,
      "inputs": [
        {
          "indexed": false,
          "internalType": "uint256",
          "name": "proposalId",
          "type": "uint256"
        },
        {
          "indexed": false,
          "internalType": "address",
          "name": "proposer",
          "type": "address"
        },
        {
          "indexed": false,
          "internalType": "address[]",
          "name": "targets",
          "type": "address[]"
        },
        {
          "indexed": false,
          "internalType": "uint256[]",
          "name": "values",
          "type": "uint256[]"
        },
        {
          "indexed": false,
          "internalType": "string[]",
          "name": "signatures",
          "type": "string[]"
        },
        {
          "indexed": false,
          "internalType": "bytes[]",
          "name": "calldatas",
          "type": "bytes[]"
        },
        {
          "indexed": false,
          "internalType": "uint256",
          "name": "startBlock",
          "type": "uint256"
        },
        {
          "indexed": false,
          "internalType": "uint256",
          "name": "endBlock",
          "type": "uint256"
        },
        {
          "indexed": false,
          "internalType": "string",
          "name": "description",
          "type": "string"
        }
      ],
      "name": "ProposalCreated",
      "type": "event"
    },
    {
      "anonymous": false,
      "inputs": [
        {
          "indexed": false,
          "internalType": "uint256",
          "name": "proposalId",
          "type": "uint256"
        }
      ],
      "name": "ProposalExecuted",
      "type": "event"
    },
    {
      "anonymous": false,
      "inputs": [
        {
          "indexed": false,
          "internalType": "uint256",
          "name": "proposalId",
          "type": "uint256"
        },
        {
          "indexed": false,
          "internalType": "uint256",
          "name": "eta",
          "type": "uint256"
        }
      ],
      "name": "ProposalQueued",
      "type": "event"
    },
    {
      "anonymous": false,
      "inputs": [
        {
          "indexed": false,
          "internalType": "uint256",
          "name": "oldProposalThreshold",
          "type": "uint256"
        },
        {
          "indexed": false,
          "internalType": "uint256",
          "name": "newProposalThreshold",
          "type": "uint256"
        }
      ],
      "name": "ProposalThresholdSet",
      "type": "event"
    },
    {
      "anonymous": false,
      "inputs": [
        {
          "indexed": false,
          "internalType": "uint256",
          "name": "oldQuorumNumerator",
          "type": "uint256"
        },
        {
          "indexed": false,
          "internalType": "uint256",
          "name": "newQuorumNumerator",
          "type": "uint256"
        }
      ],
      "name": "QuorumNumeratorUpdated",
      "type": "event"
    },
    {
      "anonymous": false,
      "inputs": [
        {
          "indexed": false,
          "internalType": "address",
          "name": "oldTimelock",
          "type": "address"
        },
        {
          "indexed": false,
          "internalType": "address",
          "name": "newTimelock",
          "type": "address"
        }
      ],
      "name": "TimelockChange",
      "type": "event"
    },
    {
      "anonymous": false,
      "inputs": [
        {
          "indexed": true,
          "internalType": "address",
          "name": "voter",
          "type": "address"
        },
        {
          "indexed": false,
          "internalType": "uint256",
          "name": "proposalId",
          "type": "uint256"
        },
        {
          "indexed": false,
          "internalType": "uint8",
          "name": "support",
          "type": "uint8"
        },
        {
          "indexed": false,
          "internalType": "uint256",
          "name": "weight",
          "type": "uint256"
        },
        {
          "indexed": false,
          "internalType": "string",
          "name": "reason",
          "type": "string"
        }
      ],
      "name": "VoteCast",
      "type": "event"
    },
    {
      "anonymous": false,
      "inputs": [
        {
          "indexed": true,
          "internalType": "address",
          "name": "voter",
          "type": "address"
        },
        {
          "indexed": false,
          "internalType": "uint256",
          "name": "proposalId",
          "type": "uint256"
        },
        {
          "indexed": false,
          "internalType": "uint8",
          "name": "support",
          "type": "uint8"
        },
        {
          "indexed": false,
          "internalType": "uint256",
          "name": "weight",
          "type": "uint256"
        },
        {
          "indexed": false,
          "internalType": "string",
          "name": "reason",
          "type": "string"
        },
        {
          "indexed": false,
          "internalType": "bytes",
          "name": "params",
          "type": "bytes"
        }
      ],
      "name": "VoteCastWithParams",
      "type": "event"
    },
    {
      "anonymous": false,
      "inputs": [
        {
          "indexed": false,
          "internalType": "uint256",
          "name": "oldVotingDelay",
          "type": "uint256"
        },
        {
          "indexed": false,
          "internalType": "uint256",
          "name": "newVotingDelay",
          "type": "uint256"
        }
      ],
      "name": "VotingDelaySet",
      "type": "event"
    },
    {
      "anonymous": false,
      "inputs": [
        {
          "indexed": false,
          "internalType": "uint256",
          "name": "oldVotingPeriod",
          "type": "uint256"
        },
        {
          "indexed": false,
          "internalType": "uint256",
          "name": "newVotingPeriod",
          "type": "uint256"
        }
      ],
      "name": "VotingPeriodSet",
      "type": "event"
    },
    {
      "inputs": [],
      "name": "BALLOT_TYPEHASH",
      "outputs": [
        {
          "internalType": "bytes32",
          "name": "",
          "type": "bytes32"
        }
      ],
      "stateMutability": "view",
      "type": "function"
    },
    {
      "inputs": [],
      "name": "COUNTING_MODE",
      "outputs": [
        {
          "internalType": "string",
          "name": "",
          "type": "string"
        }
      ],
      "stateMutability": "pure",
      "type": "function"
    },
    {
      "inputs": [],
      "name": "EXTENDED_BALLOT_TYPEHASH",
      "outputs": [
        {
          "internalType": "bytes32",
          "name": "",
          "type": "bytes32"
        }
      ],
      "stateMutability": "view",
      "type": "function"
    },
    {
      "inputs": [
        {
          "internalType": "uint256",
          "name": "proposalId",
          "type": "uint256"
        },
        {
          "internalType": "uint8",
          "name": "support",
          "type": "uint8"
        }
      ],
      "name": "castVote",
      "outputs": [
        {
          "internalType": "uint256",
          "name": "",
          "type": "uint256"
        }
      ],
      "stateMutability": "nonpayable",
      "type": "function"
    },
    {
      "inputs": [
        {
          "internalType": "uint256",
          "name": "proposalId",
          "type": "uint256"
        },
        {
          "internalType": "uint8",
          "name": "support",
          "type": "uint8"
        },
        {
          "internalType": "uint8",
          "name": "v",
          "type": "uint8"
        },
        {
          "internalType": "bytes32",
          "name": "r",
          "type": "bytes32"
        },
        {
          "internalType": "bytes32",
          "name": "s",
          "type": "bytes32"
        }
      ],
      "name": "castVoteBySig",
      "outputs": [
        {
          "internalType": "uint256",
          "name": "",
          "type": "uint256"
        }
      ],
      "stateMutability": "nonpayable",
      "type": "function"
    },
    {
      "inputs": [
        {
          "internalType": "uint256",
          "name": "proposalId",
          "type": "uint256"
        },
        {
          "internalType": "uint8",
          "name": "support",
          "type": "uint8"
        },
        {
          "internalType": "string",
          "name": "reason",
          "type": "string"
        }
      ],
      "name": "castVoteWithReason",
      "outputs": [
        {
          "internalType": "uint256",
          "name": "",
          "type": "uint256"
        }
      ],
      "stateMutability": "nonpayable",
      "type": "function"
    },
    {
      "inputs": [
        {
          "internalType": "uint256",
          "name": "proposalId",
          "type": "uint256"
        },
        {
          "internalType": "uint8",
          "name": "support",
          "type": "uint8"
        },
        {
          "internalType": "string",
          "name": "reason",
          "type": "string"
        },
        {
          "internalType": "bytes",
          "name": "params",
          "type": "bytes"
        }
      ],
      "name": "castVoteWithReasonAndParams",
      "outputs": [
        {
          "internalType": "uint256",
          "name": "",
          "type": "uint256"
        }
      ],
      "stateMutability": "nonpayable",
      "type": "function"
    },
    {
      "inputs": [
        {
          "internalType": "uint256",
          "name": "proposalId",
          "type": "uint256"
        },
        {
          "internalType": "uint8",
          "name": "support",
          "type": "uint8"
        },
        {
          "internalType": "string",
          "name": "reason",
          "type": "string"
        },
        {
          "internalType": "bytes",
          "name": "params",
          "type": "bytes"
        },
        {
          "internalType": "uint8",
          "name": "v",
          "type": "uint8"
        },
        {
          "internalType": "bytes32",
          "name": "r",
          "type": "bytes32"
        },
        {
          "internalType": "bytes32",
          "name": "s",
          "type": "bytes32"
        }
      ],
      "name": "castVoteWithReasonAndParamsBySig",
      "outputs": [
        {
          "internalType": "uint256",
          "name": "",
          "type": "uint256"
        }
      ],
      "stateMutability": "nonpayable",
      "type": "function"
    },
    {
      "inputs": [
        {
          "internalType": "address[]",
          "name": "targets",
          "type": "address[]"
        },
        {
          "internalType": "uint256[]",
          "name": "values",
          "type": "uint256[]"
        },
        {
          "internalType": "bytes[]",
          "name": "calldatas",
          "type": "bytes[]"
        },
        {
          "internalType": "bytes32",
          "name": "descriptionHash",
          "type": "bytes32"
        }
      ],
      "name": "execute",
      "outputs": [
        {
          "internalType": "uint256",
          "name": "",
          "type": "uint256"
        }
      ],
      "stateMutability": "payable",
      "type": "function"
    },
    {
      "inputs": [
        {
          "internalType": "address",
          "name": "account",
          "type": "address"
        },
        {
          "internalType": "uint256",
          "name": "blockNumber",
          "type": "uint256"
        }
      ],
      "name": "getVotes",
      "outputs": [
        {
          "internalType": "uint256",
          "name": "",
          "type": "uint256"
        }
      ],
      "stateMutability": "view",
      "type": "function"
    },
    {
      "inputs": [
        {
          "internalType": "address",
          "name": "account",
          "type": "address"
        },
        {
          "internalType": "uint256",
          "name": "blockNumber",
          "type": "uint256"
        },
        {
          "internalType": "bytes",
          "name": "params",
          "type": "bytes"
        }
      ],
      "name": "getVotesWithParams",
      "outputs": [
        {
          "internalType": "uint256",
          "name": "",
          "type": "uint256"
        }
      ],
      "stateMutability": "view",
      "type": "function"
    },
    {
      "inputs": [
        {
          "internalType": "uint256",
          "name": "proposalId",
          "type": "uint256"
        },
        {
          "internalType": "address",
          "name": "account",
          "type": "address"
        }
      ],
      "name": "hasVoted",
      "outputs": [
        {
          "internalType": "bool",
          "name": "",
          "type": "bool"
        }
      ],
      "stateMutability": "view",
      "type": "function"
    },
    {
      "inputs": [
        {
          "internalType": "address[]",
          "name": "targets",
          "type": "address[]"
        },
        {
          "internalType": "uint256[]",
          "name": "values",
          "type": "uint256[]"
        },
        {
          "internalType": "bytes[]",
          "name": "calldatas",
          "type": "bytes[]"
        },
        {
          "internalType": "bytes32",
          "name": "descriptionHash",
          "type": "bytes32"
        }
      ],
      "name": "hashProposal",
      "outputs": [
        {
          "internalType": "uint256",
          "name": "",
          "type": "uint256"
        }
      ],
      "stateMutability": "pure",
      "type": "function"
    },
    {
      "inputs": [],
      "name": "name",
      "outputs": [
        {
          "internalType": "string",
          "name": "",
          "type": "string"
        }
      ],
      "stateMutability": "view",
      "type": "function"
    },
    {
      "inputs": [
        {
          "internalType": "address",
          "name": "",
          "type": "address"
        },
        {
          "internalType": "address",
          "name": "",
          "type": "address"
        },
        {
          "internalType": "uint256[]",
          "name": "",
          "type": "uint256[]"
        },
        {
          "internalType": "uint256[]",
          "name": "",
          "type": "uint256[]"
        },
        {
          "internalType": "bytes",
          "name": "",
          "type": "bytes"
        }
      ],
      "name": "onERC1155BatchReceived",
      "outputs": [
        {
          "internalType": "bytes4",
          "name": "",
          "type": "bytes4"
        }
      ],
      "stateMutability": "nonpayable",
      "type": "function"
    },
    {
      "inputs": [
        {
          "internalType": "address",
          "name": "",
          "type": "address"
        },
        {
          "internalType": "address",
          "name": "",
          "type": "address"
        },
        {
          "internalType": "uint256",
          "name": "",
          "type": "uint256"
        },
        {
          "internalType": "uint256",
          "name": "",
          "type": "uint256"
        },
        {
          "internalType": "bytes",
          "name": "",
          "type": "bytes"
        }
      ],
      "name": "onERC1155Received",
      "outputs": [
        {
          "internalType": "bytes4",
          "name": "",
          "type": "bytes4"
        }
      ],
      "stateMutability": "nonpayable",
      "type": "function"
    },
    {
      "inputs": [
        {
          "internalType": "address",
          "name": "",
          "type": "address"
        },
        {
          "internalType": "address",
          "name": "",
          "type": "address"
        },
        {
          "internalType": "uint256",
          "name": "",
          "type": "uint256"
        },
        {
          "internalType": "bytes",
          "name": "",
          "type": "bytes"
        }
      ],
      "name": "onERC721Received",
      "outputs": [
        {
          "internalType": "bytes4",
          "name": "",
          "type": "bytes4"
        }
      ],
      "stateMutability": "nonpayable",
      "type": "function"
    },
    {
      "inputs": [
        {
          "internalType": "uint256",
          "name": "proposalId",
          "type": "uint256"
        }
      ],
      "name": "proposalDeadline",
      "outputs": [
        {
          "internalType": "uint256",
          "name": "",
          "type": "uint256"
        }
      ],
      "stateMutability": "view",
      "type": "function"
    },
    {
      "inputs": [
        {
          "internalType": "uint256",
          "name": "proposalId",
          "type": "uint256"
        }
      ],
      "name": "proposalEta",
      "outputs": [
        {
          "internalType": "uint256",
          "name": "",
          "type": "uint256"
        }
      ],
      "stateMutability": "view",
      "type": "function"
    },
    {
      "inputs": [
        {
          "internalType": "uint256",
          "name": "proposalId",
          "type": "uint256"
        }
      ],
      "name": "proposalSnapshot",
      "outputs": [
        {
          "internalType": "uint256",
          "name": "",
          "type": "uint256"
        }
      ],
      "stateMutability": "view",
      "type": "function"
    },
    {
      "inputs": [],
      "name": "proposalThreshold",
      "outputs": [
        {
          "internalType": "uint256",
          "name": "",
          "type": "uint256"
        }
      ],
      "stateMutability": "view",
      "type": "function"
    },
    {
      "inputs": [
        {
          "internalType": "uint256",
          "name": "proposalId",
          "type": "uint256"
        }
      ],
      "name": "proposalVotes",
      "outputs": [
        {
          "internalType": "uint256",
          "name": "againstVotes",
          "type": "uint256"
        },
        {
          "internalType": "uint256",
          "name": "forVotes",
          "type": "uint256"
        },
        {
          "internalType": "uint256",
          "name": "abstainVotes",
          "type": "uint256"
        }
      ],
      "stateMutability": "view",
      "type": "function"
    },
    {
      "inputs": [
        {
          "internalType": "address[]",
          "name": "targets",
          "type": "address[]"
        },
        {
          "internalType": "uint256[]",
          "name": "values",
          "type": "uint256[]"
        },
        {
          "internalType": "bytes[]",
          "name": "calldatas",
          "type": "bytes[]"
        },
        {
          "internalType": "string",
          "name": "description",
          "type": "string"
        }
      ],
      "name": "propose",
      "outputs": [
        {
          "internalType": "uint256",
          "name": "",
          "type": "uint256"
        }
      ],
      "stateMutability": "nonpayable",
      "type": "function"
    },
    {
      "inputs": [
        {
          "internalType": "address[]",
          "name": "targets",
          "type": "address[]"
        },
        {
          "internalType": "uint256[]",
          "name": "values",
          "type": "uint256[]"
        },
        {
          "internalType": "bytes[]",
          "name": "calldatas",
          "type": "bytes[]"
        },
        {
          "internalType": "bytes32",
          "name": "descriptionHash",
          "type": "bytes32"
        }
      ],
      "name": "queue",
      "outputs": [
        {
          "internalType": "uint256",
          "name": "",
          "type": "uint256"
        }
      ],
      "stateMutability": "nonpayable",
      "type": "function"
    },
    {
      "inputs": [
        {
          "internalType": "uint256",
          "name": "blockNumber",
          "type": "uint256"
        }
      ],
      "name": "quorum",
      "outputs": [
        {
          "internalType": "uint256",
          "name": "",
          "type": "uint256"
        }
      ],
      "stateMutability": "view",
      "type": "function"
    },
    {
      "inputs": [],
      "name": "quorumDenominator",
      "outputs": [
        {
          "internalType": "uint256",
          "name": "",
          "type": "uint256"
        }
      ],
      "stateMutability": "view",
      "type": "function"
    },
    {
      "inputs": [
        {
          "internalType": "uint256",
          "name": "blockNumber",
          "type": "uint256"
        }
      ],
      "name": "quorumNumerator",
      "outputs": [
        {
          "internalType": "uint256",
          "name": "",
          "type": "uint256"
        }
      ],
      "stateMutability": "view",
      "type": "function"
    },
    {
      "inputs": [],
      "name": "quorumNumerator",
      "outputs": [
        {
          "internalType": "uint256",
          "name": "",
          "type": "uint256"
        }
      ],
      "stateMutability": "view",
      "type": "function"
    },
    {
      "inputs": [
        {
          "internalType": "address",
          "name": "target",
          "type": "address"
        },
        {
          "internalType": "uint256",
          "name": "value",
          "type": "uint256"
        },
        {
          "internalType": "bytes",
          "name": "data",
          "type": "bytes"
        }
      ],
      "name": "relay",
      "outputs": [],
      "stateMutability": "nonpayable",
      "type": "function"
    },
    {
      "inputs": [
        {
          "internalType": "uint256",
          "name": "newProposalThreshold",
          "type": "uint256"
        }
      ],
      "name": "setProposalThreshold",
      "outputs": [],
      "stateMutability": "nonpayable",
      "type": "function"
    },
    {
      "inputs": [
        {
          "internalType": "uint256",
          "name": "newVotingDelay",
          "type": "uint256"
        }
      ],
      "name": "setVotingDelay",
      "outputs": [],
      "stateMutability": "nonpayable",
      "type": "function"
    },
    {
      "inputs": [
        {
          "internalType": "uint256",
          "name": "newVotingPeriod",
          "type": "uint256"
        }
      ],
      "name": "setVotingPeriod",
      "outputs": [],
      "stateMutability": "nonpayable",
      "type": "function"
    },
    {
      "inputs": [
        {
          "internalType": "uint256",
          "name": "proposalId",
          "type": "uint256"
        }
      ],
      "name": "state",
      "outputs": [
        {
          "internalType": "enum IGovernor.ProposalState",
          "name": "",
          "type": "uint8"
        }
      ],
      "stateMutability": "view",
      "type": "function"
    },
    {
      "inputs": [
        {
          "internalType": "bytes4",
          "name": "interfaceId",
          "type": "bytes4"
        }
      ],
      "name": "supportsInterface",
      "outputs": [
        {
          "internalType": "bool",
          "name": "",
          "type": "bool"
        }
      ],
      "stateMutability": "view",
      "type": "function"
    },
    {
      "inputs": [],
      "name": "timelock",
      "outputs": [
        {
          "internalType": "address",
          "name": "",
          "type": "address"
        }
      ],
      "stateMutability": "view",
      "type": "function"
    },
    {
      "inputs": [],
      "name": "token",
      "outputs": [
        {
          "internalType": "contract IVotes",
          "name": "",
          "type": "address"
        }
      ],
      "stateMutability": "view",
      "type": "function"
    },
    {
      "inputs": [
        {
          "internalType": "uint256",
          "name": "newQuorumNumerator",
          "type": "uint256"
        }
      ],
      "name": "updateQuorumNumerator",
      "outputs": [],
      "stateMutability": "nonpayable",
      "type": "function"
    },
    {
      "inputs": [
        {
          "internalType": "contract TimelockController",
          "name": "newTimelock",
          "type": "address"
        }
      ],
      "name": "updateTimelock",
      "outputs": [],
      "stateMutability": "nonpayable",
      "type": "function"
    },
    {
      "inputs": [],
      "name": "version",
      "outputs": [
        {
          "internalType": "string",
          "name": "",
          "type": "string"
        }
      ],
      "stateMutability": "view",
      "type": "function"
    },
    {
      "inputs": [],
      "name": "votingDelay",
      "outputs": [
        {
          "internalType": "uint256",
          "name": "",
          "type": "uint256"
        }
      ],
      "stateMutability": "view",
      "type": "function"
    },
    {
      "inputs": [],
      "name": "votingPeriod",
      "outputs": [
        {
          "internalType": "uint256",
          "name": "",
          "type": "uint256"
        }
      ],
      "stateMutability": "view",
      "type": "function"
    },
    {
      "stateMutability": "payable",
      "type": "receive"
    }
  ],
  "transactionHash": "0xbbcc51553bc23a52e40ecbfedd5378882bc304c0930e688d631bacc399afdd4a",
  "args": [
    "0x5FbDB2315678afecb367f032d93F642f64180aa3",
    "0x9fE46736679d2D9a65F0992F2272dE9f3c7fa6e0",
    1,
    5,
    4
  ],
  "numDeployments": 1,
  "solcInputHash": "d40578155169f432585209890c65395e",
  "bytecode": "0x6101606040523480156200001257600080fd5b5060405162007c3138038062007c31833981810160405281019062000038919062000ba8565b838386838560006040518060400160405280601081526020017f476f7665726e6f72436f6e7472616374000000000000000000000000000000008152508062000086620001ed60201b60201c565b60008280519060200120905060008280519060200120905060007f8b73c3c69bb8fe3d512ecc4cf759cc79239f7b179b0ffacaa9a75d522b39400f90508260e081815250508161010081815250504660a08181525050620000ef8184846200022a60201b60201c565b608081815250503073ffffffffffffffffffffffffffffffffffffffff1660c08173ffffffffffffffffffffffffffffffffffffffff16815250508061012081815250505050505050806000908051906020019062000150929190620009e6565b505062000163836200026660201b60201c565b6200017482620002ad60201b60201c565b62000185816200033a60201b60201c565b5050508073ffffffffffffffffffffffffffffffffffffffff166101408173ffffffffffffffffffffffffffffffffffffffff168152505050620001cf816200038160201b60201c565b50620001e1816200056060201b60201c565b505050505050620010b8565b60606040518060400160405280600181526020017f3100000000000000000000000000000000000000000000000000000000000000815250905090565b600083838346306040516020016200024795949392919062000c6d565b6040516020818303038152906040528051906020012090509392505050565b7fc565b045403dc03c2eea82b81a0465edad9e2e7fc4d97e11421c209da93d7a93600454826040516200029b92919062000cca565b60405180910390a18060048190555050565b60008111620002f3576040517f08c379a0000000000000000000000000000000000000000000000000000000008152600401620002ea9062000d7e565b60405180910390fd5b7f7e3f7f0708a84de9203036abaa450dccc85ad5ff52f78c170f3edb55cf5e8828600554826040516200032892919062000cca565b60405180910390a18060058190555050565b7fccb45da8d5717e6c4544694297c4ba5cf151d455c9bb0ed4fc7a38411bc05461600654826040516200036f92919062000cca565b60405180910390a18060068190555050565b620003916200060160201b60201c565b811115620003d6576040517f08c379a0000000000000000000000000000000000000000000000000000000008152600401620003cd9062000e3c565b60405180910390fd5b6000620003e86200060a60201b60201c565b9050600081141580156200040457506000600960000180549050145b15620005045760096000016040518060400160405280600063ffffffff1681526020016200043d846200064260201b62001e261760201c565b7bffffffffffffffffffffffffffffffffffffffffffffffffffffffff168152509080600181540180825580915050600190039060005260206000200160009091909190915060008201518160000160006101000a81548163ffffffff021916908363ffffffff16021790555060208201518160000160046101000a8154817bffffffffffffffffffffffffffffffffffffffffffffffffffffffff02191690837bffffffffffffffffffffffffffffffffffffffffffffffffffffffff16021790555050505b6200051f826009620006b060201b62001e911790919060201c565b50507f0553476bf02ef2726e8ce5ced78d63e26e602e4a2257b1f559418e24b463399781836040516200055492919062000cca565b60405180910390a15050565b7f08f74ea46ef7894f65eabfb5e6e695de773a000b47c529ab559178069b226401600a60009054906101000a900473ffffffffffffffffffffffffffffffffffffffff1682604051620005b592919062000e5e565b60405180910390a180600a60006101000a81548173ffffffffffffffffffffffffffffffffffffffff021916908373ffffffffffffffffffffffffffffffffffffffff16021790555050565b60006064905090565b600080600960000180549050146200063957620006336009620008ee60201b620020931760201c565b6200063d565b6008545b905090565b60007bffffffffffffffffffffffffffffffffffffffffffffffffffffffff8016821115620006a8576040517f08c379a00000000000000000000000000000000000000000000000000000000081526004016200069f9062000f01565b60405180910390fd5b819050919050565b6000806000846000018054905090506000620006d286620008ee60201b60201c565b90506000821180156200072e57504386600001600184620006f4919062000f52565b8154811062000708576200070762000f8d565b5b9060005260206000200160000160009054906101000a900463ffffffff1663ffffffff16145b15620007d2576200074a856200064260201b62001e261760201c565b866000016001846200075d919062000f52565b8154811062000771576200077062000f8d565b5b9060005260206000200160000160046101000a8154817bffffffffffffffffffffffffffffffffffffffffffffffffffffffff02191690837bffffffffffffffffffffffffffffffffffffffffffffffffffffffff160217905550620008df565b856000016040518060400160405280620007f7436200099060201b6200212e1760201c565b63ffffffff16815260200162000818886200064260201b62001e261760201c565b7bffffffffffffffffffffffffffffffffffffffffffffffffffffffff168152509080600181540180825580915050600190039060005260206000200160009091909190915060008201518160000160006101000a81548163ffffffff021916908363ffffffff16021790555060208201518160000160046101000a8154817bffffffffffffffffffffffffffffffffffffffffffffffffffffffff02191690837bffffffffffffffffffffffffffffffffffffffffffffffffffffffff16021790555050505b80859350935050509250929050565b600080826000018054905090506000811462000967578260000160018262000917919062000f52565b815481106200092b576200092a62000f8d565b5b9060005260206000200160000160049054906101000a90047bffffffffffffffffffffffffffffffffffffffffffffffffffffffff166200096a565b60005b7bffffffffffffffffffffffffffffffffffffffffffffffffffffffff16915050919050565b600063ffffffff8016821115620009de576040517f08c379a0000000000000000000000000000000000000000000000000000000008152600401620009d59062001032565b60405180910390fd5b819050919050565b828054620009f49062001083565b90600052602060002090601f01602090048101928262000a18576000855562000a64565b82601f1062000a3357805160ff191683800117855562000a64565b8280016001018555821562000a64579182015b8281111562000a6357825182559160200191906001019062000a46565b5b50905062000a73919062000a77565b5090565b5b8082111562000a9257600081600090555060010162000a78565b5090565b600080fd5b600073ffffffffffffffffffffffffffffffffffffffff82169050919050565b600062000ac88262000a9b565b9050919050565b600062000adc8262000abb565b9050919050565b62000aee8162000acf565b811462000afa57600080fd5b50565b60008151905062000b0e8162000ae3565b92915050565b600062000b218262000a9b565b9050919050565b600062000b358262000b14565b9050919050565b62000b478162000b28565b811462000b5357600080fd5b50565b60008151905062000b678162000b3c565b92915050565b6000819050919050565b62000b828162000b6d565b811462000b8e57600080fd5b50565b60008151905062000ba28162000b77565b92915050565b600080600080600060a0868803121562000bc75762000bc662000a96565b5b600062000bd78882890162000afd565b955050602062000bea8882890162000b56565b945050604062000bfd8882890162000b91565b935050606062000c108882890162000b91565b925050608062000c238882890162000b91565b9150509295509295909350565b6000819050919050565b62000c458162000c30565b82525050565b62000c568162000b6d565b82525050565b62000c678162000abb565b82525050565b600060a08201905062000c84600083018862000c3a565b62000c93602083018762000c3a565b62000ca2604083018662000c3a565b62000cb1606083018562000c4b565b62000cc0608083018462000c5c565b9695505050505050565b600060408201905062000ce1600083018562000c4b565b62000cf0602083018462000c4b565b9392505050565b600082825260208201905092915050565b7f476f7665726e6f7253657474696e67733a20766f74696e6720706572696f642060008201527f746f6f206c6f7700000000000000000000000000000000000000000000000000602082015250565b600062000d6660278362000cf7565b915062000d738262000d08565b604082019050919050565b6000602082019050818103600083015262000d998162000d57565b9050919050565b7f476f7665726e6f72566f74657351756f72756d4672616374696f6e3a2071756f60008201527f72756d4e756d657261746f72206f7665722071756f72756d44656e6f6d696e6160208201527f746f720000000000000000000000000000000000000000000000000000000000604082015250565b600062000e2460438362000cf7565b915062000e318262000da0565b606082019050919050565b6000602082019050818103600083015262000e578162000e15565b9050919050565b600060408201905062000e75600083018562000c5c565b62000e84602083018462000c5c565b9392505050565b7f53616665436173743a2076616c756520646f65736e27742066697420696e203260008201527f3234206269747300000000000000000000000000000000000000000000000000602082015250565b600062000ee960278362000cf7565b915062000ef68262000e8b565b604082019050919050565b6000602082019050818103600083015262000f1c8162000eda565b9050919050565b7f4e487b7100000000000000000000000000000000000000000000000000000000600052601160045260246000fd5b600062000f5f8262000b6d565b915062000f6c8362000b6d565b92508282101562000f825762000f8162000f23565b5b828203905092915050565b7f4e487b7100000000000000000000000000000000000000000000000000000000600052603260045260246000fd5b7f53616665436173743a2076616c756520646f65736e27742066697420696e203360008201527f3220626974730000000000000000000000000000000000000000000000000000602082015250565b60006200101a60268362000cf7565b9150620010278262000fbc565b604082019050919050565b600060208201905081810360008301526200104d816200100b565b9050919050565b7f4e487b7100000000000000000000000000000000000000000000000000000000600052602260045260246000fd5b600060028204905060018216806200109c57607f821691505b602082108103620010b257620010b162001054565b5b50919050565b60805160a05160c05160e051610100516101205161014051616b106200112160003960008181611e0401528181612eda0152613153015260006134190152600061345b0152600061343a0152600061336f015260006133c5015260006133ee0152616b106000f3fe60806040526004361061024a5760003560e01c80637b3c71d311610139578063c28bc2fa116100b6578063ea0217cf1161007a578063ea0217cf146109cb578063eb9019d4146109f4578063ece40cc114610a31578063f23a6e6114610a5a578063f8ce560a14610a97578063fc0c546a14610ad457610290565b8063c28bc2fa146108e4578063c59057e41461090d578063d33219b41461094a578063dd4e2ba514610975578063deaaa7cc146109a057610290565b8063a890c910116100fd578063a890c910146107d9578063ab58fb8e14610802578063b58131b01461083f578063bc197c811461086a578063c01f9e37146108a757610290565b80637b3c71d3146106cc5780637d5e81e21461070957806397c3d334146107465780639a802a6d14610771578063a7713a70146107ae57610290565b80633932abb1116101c757806354fd4d501161018b57806354fd4d50146105c157806356781388146105ec5780635f398a141461062957806360c4247f1461066657806370b0f660146106a357610290565b80633932abb1146104a05780633bccf4fd146104cb5780633e4f49e6146105085780634385963214610545578063544ffc9c1461058257610290565b8063150b7a021161020e578063150b7a021461038e578063160cbed7146103cb5780632656227d146104085780632d63f693146104385780632fe3e2611461047557610290565b806301ffc9a71461029557806302a251a3146102d257806303420181146102fd57806306f3f9e61461033a57806306fdde031461036357610290565b36610290573073ffffffffffffffffffffffffffffffffffffffff1661026e610aff565b73ffffffffffffffffffffffffffffffffffffffff161461028e57600080fd5b005b600080fd5b3480156102a157600080fd5b506102bc60048036038101906102b79190614075565b610b0e565b6040516102c991906140bd565b60405180910390f35b3480156102de57600080fd5b506102e7610b20565b6040516102f491906140f1565b60405180910390f35b34801561030957600080fd5b50610324600480360381019061031f919061434d565b610b2f565b60405161033191906140f1565b60405180910390f35b34801561034657600080fd5b50610361600480360381019061035c919061442b565b610c14565b005b34801561036f57600080fd5b50610378610d0b565b60405161038591906144e0565b60405180910390f35b34801561039a57600080fd5b506103b560048036038101906103b09190614560565b610d9d565b6040516103c291906145f2565b60405180910390f35b3480156103d757600080fd5b506103f260048036038101906103ed9190614874565b610db1565b6040516103ff91906140f1565b60405180910390f35b610422600480360381019061041d9190614874565b61106b565b60405161042f91906140f1565b60405180910390f35b34801561044457600080fd5b5061045f600480360381019061045a919061442b565b6111b8565b60405161046c91906140f1565b60405180910390f35b34801561048157600080fd5b5061048a611226565b604051610497919061493e565b60405180910390f35b3480156104ac57600080fd5b506104b561124a565b6040516104c291906140f1565b60405180910390f35b3480156104d757600080fd5b506104f260048036038101906104ed9190614959565b611259565b6040516104ff91906140f1565b60405180910390f35b34801561051457600080fd5b5061052f600480360381019061052a919061442b565b6112e3565b60405161053c9190614a4b565b60405180910390f35b34801561055157600080fd5b5061056c60048036038101906105679190614a66565b6112f5565b60405161057991906140bd565b60405180910390f35b34801561058e57600080fd5b506105a960048036038101906105a4919061442b565b611360565b6040516105b893929190614aa6565b60405180910390f35b3480156105cd57600080fd5b506105d6611398565b6040516105e391906144e0565b60405180910390f35b3480156105f857600080fd5b50610613600480360381019061060e9190614add565b6113d5565b60405161062091906140f1565b60405180910390f35b34801561063557600080fd5b50610650600480360381019061064b9190614b1d565b611406565b60405161065d91906140f1565b60405180910390f35b34801561067257600080fd5b5061068d6004803603810190610688919061442b565b611470565b60405161069a91906140f1565b60405180910390f35b3480156106af57600080fd5b506106ca60048036038101906106c5919061442b565b6115bc565b005b3480156106d857600080fd5b506106f360048036038101906106ee9190614bc1565b6116b3565b60405161070091906140f1565b60405180910390f35b34801561071557600080fd5b50610730600480360381019061072b9190614cd6565b61171b565b60405161073d91906140f1565b60405180910390f35b34801561075257600080fd5b5061075b611733565b60405161076891906140f1565b60405180910390f35b34801561077d57600080fd5b5061079860048036038101906107939190614dad565b61173c565b6040516107a591906140f1565b60405180910390f35b3480156107ba57600080fd5b506107c3611752565b6040516107d091906140f1565b60405180910390f35b3480156107e557600080fd5b5061080060048036038101906107fb9190614e6c565b61177b565b005b34801561080e57600080fd5b506108296004803603810190610824919061442b565b611872565b60405161083691906140f1565b60405180910390f35b34801561084b57600080fd5b5061085461193f565b60405161086191906140f1565b60405180910390f35b34801561087657600080fd5b50610891600480360381019061088c9190614e99565b61194e565b60405161089e91906145f2565b60405180910390f35b3480156108b357600080fd5b506108ce60048036038101906108c9919061442b565b611963565b6040516108db91906140f1565b60405180910390f35b3480156108f057600080fd5b5061090b60048036038101906109069190614fbe565b6119d1565b005b34801561091957600080fd5b50610934600480360381019061092f9190614874565b611b12565b60405161094191906140f1565b60405180910390f35b34801561095657600080fd5b5061095f611b4e565b60405161096c9190615041565b60405180910390f35b34801561098157600080fd5b5061098a611b78565b60405161099791906144e0565b60405180910390f35b3480156109ac57600080fd5b506109b5611bb5565b6040516109c2919061493e565b60405180910390f35b3480156109d757600080fd5b506109f260048036038101906109ed919061442b565b611bd9565b005b348015610a0057600080fd5b50610a1b6004803603810190610a16919061505c565b611cd0565b604051610a2891906140f1565b60405180910390f35b348015610a3d57600080fd5b50610a586004803603810190610a53919061442b565b611ce4565b005b348015610a6657600080fd5b50610a816004803603810190610a7c919061509c565b611ddb565b604051610a8e91906145f2565b60405180910390f35b348015610aa357600080fd5b50610abe6004803603810190610ab9919061442b565b611df0565b604051610acb91906140f1565b60405180910390f35b348015610ae057600080fd5b50610ae9611e02565b604051610af69190615192565b60405180910390f35b6000610b09612181565b905090565b6000610b19826121ab565b9050919050565b6000610b2a612225565b905090565b600080610bb2610baa7fb3b3f3b703cd84ce352197dcff232b1b5d3cfb2025ce47cf04742d0651f1af888c8c8c8c604051610b6b9291906151dd565b60405180910390208b80519060200120604051602001610b8f959493929190615205565b6040516020818303038152906040528051906020012061222f565b868686612249565b9050610c058a828b8b8b8080601f016020809104026020016040519081016040528093929190818152602001838380828437600081840152601f19601f820116905080830192505050505050508a612274565b91505098975050505050505050565b610c1c610aff565b73ffffffffffffffffffffffffffffffffffffffff16610c3a612430565b73ffffffffffffffffffffffffffffffffffffffff1614610c90576040517f08c379a0000000000000000000000000000000000000000000000000000000008152600401610c87906152a4565b60405180910390fd5b3073ffffffffffffffffffffffffffffffffffffffff16610caf610aff565b73ffffffffffffffffffffffffffffffffffffffff1614610cff576000610cd4612438565b604051610ce29291906151dd565b604051809103902090505b80610cf86002612445565b03610ced57505b610d0881612521565b50565b606060008054610d1a906152f3565b80601f0160208091040260200160405190810160405280929190818152602001828054610d46906152f3565b8015610d935780601f10610d6857610100808354040283529160200191610d93565b820191906000526020600020905b815481529060010190602001808311610d7657829003601f168201915b5050505050905090565b600063150b7a0260e01b9050949350505050565b600080610dc086868686611b12565b905060046007811115610dd657610dd56149d4565b5b610ddf826112e3565b6007811115610df157610df06149d4565b5b14610e31576040517f08c379a0000000000000000000000000000000000000000000000000000000008152600401610e2890615396565b60405180910390fd5b6000600a60009054906101000a900473ffffffffffffffffffffffffffffffffffffffff1673ffffffffffffffffffffffffffffffffffffffff1663f27a0c926040518163ffffffff1660e01b8152600401602060405180830381865afa158015610ea0573d6000803e3d6000fd5b505050506040513d601f19601f82011682018060405250810190610ec491906153cb565b9050600a60009054906101000a900473ffffffffffffffffffffffffffffffffffffffff1673ffffffffffffffffffffffffffffffffffffffff1663b1c5f4278888886000896040518663ffffffff1660e01b8152600401610f2a9594939291906156d3565b602060405180830381865afa158015610f47573d6000803e3d6000fd5b505050506040513d601f19601f82011682018060405250810190610f6b9190615750565b600b600084815260200190815260200160002081905550600a60009054906101000a900473ffffffffffffffffffffffffffffffffffffffff1673ffffffffffffffffffffffffffffffffffffffff16638f2a0bb0888888600089876040518763ffffffff1660e01b8152600401610fe89695949392919061577d565b600060405180830381600087803b15801561100257600080fd5b505af1158015611016573d6000803e3d6000fd5b505050507f9a2e42fd6722813d69113e7d0079d3d940171428df7373df9c7f7617cfda28928282426110489190615822565b604051611056929190615878565b60405180910390a18192505050949350505050565b60008061107a86868686611b12565b90506000611087826112e3565b90506004600781111561109d5761109c6149d4565b5b8160078111156110b0576110af6149d4565b5b14806110e05750600560078111156110cb576110ca6149d4565b5b8160078111156110de576110dd6149d4565b5b145b61111f576040517f08c379a000000000000000000000000000000000000000000000000000000000815260040161111690615396565b60405180910390fd5b600180600084815260200190815260200160002060020160006101000a81548160ff0219169083151502179055507f712ae1383f79ac853f8d882153778e0260ef8f03b504e2866e0593e04d2b291f8260405161117c91906140f1565b60405180910390a161119182888888886126d5565b61119e82888888886127b8565b6111ab82888888886127cc565b8192505050949350505050565b6000611215600160008481526020019081526020016000206000016040518060200160405290816000820160009054906101000a900467ffffffffffffffff1667ffffffffffffffff1667ffffffffffffffff1681525050612827565b67ffffffffffffffff169050919050565b7fb3b3f3b703cd84ce352197dcff232b1b5d3cfb2025ce47cf04742d0651f1af8881565b6000611254612835565b905090565b6000806112ba6112b27f150214d74d59b7d1e90c73fc22ef3d991dd0a76b046543d4d80ab92d2a50328f8989604051602001611297939291906158a1565b6040516020818303038152906040528051906020012061222f565b868686612249565b90506112d78782886040518060200160405280600081525061283f565b91505095945050505050565b60006112ee8261285f565b9050919050565b60006007600084815260200190815260200160002060030160008373ffffffffffffffffffffffffffffffffffffffff1673ffffffffffffffffffffffffffffffffffffffff16815260200190815260200160002060009054906101000a900460ff16905092915050565b600080600080600760008681526020019081526020016000209050806000015481600101548260020154935093509350509193909250565b60606040518060400160405280600181526020017f3100000000000000000000000000000000000000000000000000000000000000815250905090565b6000806113e0612430565b90506113fd8482856040518060200160405280600081525061283f565b91505092915050565b600080611411612430565b905061146487828888888080601f016020809104026020016040519081016040528093929190818152602001838380828437600081840152601f19601f8201169050808301925050505050505087612274565b91505095945050505050565b600080600960000180549050905060008103611491576008549150506115b7565b600060096000016001836114a591906158d8565b815481106114b6576114b561590c565b5b906000526020600020016040518060400160405290816000820160009054906101000a900463ffffffff1663ffffffff1663ffffffff1681526020016000820160049054906101000a90047bffffffffffffffffffffffffffffffffffffffffffffffffffffffff167bffffffffffffffffffffffffffffffffffffffffffffffffffffffff167bffffffffffffffffffffffffffffffffffffffffffffffffffffffff1681525050905083816000015163ffffffff161161159e5780602001517bffffffffffffffffffffffffffffffffffffffffffffffffffffffff16925050506115b7565b6115b2846009612a3290919063ffffffff16565b925050505b919050565b6115c4610aff565b73ffffffffffffffffffffffffffffffffffffffff166115e2612430565b73ffffffffffffffffffffffffffffffffffffffff1614611638576040517f08c379a000000000000000000000000000000000000000000000000000000000815260040161162f906152a4565b60405180910390fd5b3073ffffffffffffffffffffffffffffffffffffffff16611657610aff565b73ffffffffffffffffffffffffffffffffffffffff16146116a757600061167c612438565b60405161168a9291906151dd565b604051809103902090505b806116a06002612445565b0361169557505b6116b081612b8a565b50565b6000806116be612430565b905061171086828787878080601f016020809104026020016040519081016040528093929190818152602001838380828437600081840152601f19601f8201169050808301925050505050505061283f565b915050949350505050565b600061172985858585612bcf565b9050949350505050565b60006064905090565b6000611749848484612ed6565b90509392505050565b600080600960000180549050146117725761176d6009612093565b611776565b6008545b905090565b611783610aff565b73ffffffffffffffffffffffffffffffffffffffff166117a1612430565b73ffffffffffffffffffffffffffffffffffffffff16146117f7576040517f08c379a00000000000000000000000000000000000000000000000000000000081526004016117ee906152a4565b60405180910390fd5b3073ffffffffffffffffffffffffffffffffffffffff16611816610aff565b73ffffffffffffffffffffffffffffffffffffffff161461186657600061183b612438565b6040516118499291906151dd565b604051809103902090505b8061185f6002612445565b0361185457505b61186f81612f7d565b50565b600080600a60009054906101000a900473ffffffffffffffffffffffffffffffffffffffff1673ffffffffffffffffffffffffffffffffffffffff1663d45c4435600b6000868152602001908152602001600020546040518263ffffffff1660e01b81526004016118e3919061493e565b602060405180830381865afa158015611900573d6000803e3d6000fd5b505050506040513d601f19601f8201168201806040525081019061192491906153cb565b9050600181146119345780611937565b60005b915050919050565b600061194961301c565b905090565b600063bc197c8160e01b905095945050505050565b60006119c0600160008481526020019081526020016000206001016040518060200160405290816000820160009054906101000a900467ffffffffffffffff1667ffffffffffffffff1667ffffffffffffffff1681525050612827565b67ffffffffffffffff169050919050565b6119d9610aff565b73ffffffffffffffffffffffffffffffffffffffff166119f7612430565b73ffffffffffffffffffffffffffffffffffffffff1614611a4d576040517f08c379a0000000000000000000000000000000000000000000000000000000008152600401611a44906152a4565b60405180910390fd5b3073ffffffffffffffffffffffffffffffffffffffff16611a6c610aff565b73ffffffffffffffffffffffffffffffffffffffff1614611abc576000611a91612438565b604051611a9f9291906151dd565b604051809103902090505b80611ab56002612445565b03611aaa57505b611b0b8483838080601f016020809104026020016040519081016040528093929190818152602001838380828437600081840152601f19601f8201169050808301925050505050505085613026565b5050505050565b600084848484604051602001611b2b949392919061593b565b6040516020818303038152906040528051906020012060001c9050949350505050565b6000600a60009054906101000a900473ffffffffffffffffffffffffffffffffffffffff16905090565b60606040518060400160405280602081526020017f737570706f72743d627261766f2671756f72756d3d666f722c6162737461696e815250905090565b7f150214d74d59b7d1e90c73fc22ef3d991dd0a76b046543d4d80ab92d2a50328f81565b611be1610aff565b73ffffffffffffffffffffffffffffffffffffffff16611bff612430565b73ffffffffffffffffffffffffffffffffffffffff1614611c55576040517f08c379a0000000000000000000000000000000000000000000000000000000008152600401611c4c906152a4565b60405180910390fd5b3073ffffffffffffffffffffffffffffffffffffffff16611c74610aff565b73ffffffffffffffffffffffffffffffffffffffff1614611cc4576000611c99612438565b604051611ca79291906151dd565b604051809103902090505b80611cbd6002612445565b03611cb257505b611ccd81613055565b50565b6000611cdc83836130dd565b905092915050565b611cec610aff565b73ffffffffffffffffffffffffffffffffffffffff16611d0a612430565b73ffffffffffffffffffffffffffffffffffffffff1614611d60576040517f08c379a0000000000000000000000000000000000000000000000000000000008152600401611d57906152a4565b60405180910390fd5b3073ffffffffffffffffffffffffffffffffffffffff16611d7f610aff565b73ffffffffffffffffffffffffffffffffffffffff1614611dcf576000611da4612438565b604051611db29291906151dd565b604051809103902090505b80611dc86002612445565b03611dbd57505b611dd8816130f9565b50565b600063f23a6e6160e01b905095945050505050565b6000611dfb8261313e565b9050919050565b7f000000000000000000000000000000000000000000000000000000000000000081565b60007bffffffffffffffffffffffffffffffffffffffffffffffffffffffff8016821115611e89576040517f08c379a0000000000000000000000000000000000000000000000000000000008152600401611e8090615a07565b60405180910390fd5b819050919050565b6000806000846000018054905090506000611eab86612093565b9050600082118015611f0157504386600001600184611eca91906158d8565b81548110611edb57611eda61590c565b5b9060005260206000200160000160009054906101000a900463ffffffff1663ffffffff16145b15611f9157611f0f85611e26565b86600001600184611f2091906158d8565b81548110611f3157611f3061590c565b5b9060005260206000200160000160046101000a8154817bffffffffffffffffffffffffffffffffffffffffffffffffffffffff02191690837bffffffffffffffffffffffffffffffffffffffffffffffffffffffff160217905550612084565b856000016040518060400160405280611fa94361212e565b63ffffffff168152602001611fbd88611e26565b7bffffffffffffffffffffffffffffffffffffffffffffffffffffffff168152509080600181540180825580915050600190039060005260206000200160009091909190915060008201518160000160006101000a81548163ffffffff021916908363ffffffff16021790555060208201518160000160046101000a8154817bffffffffffffffffffffffffffffffffffffffffffffffffffffffff02191690837bffffffffffffffffffffffffffffffffffffffffffffffffffffffff16021790555050505b80859350935050509250929050565b600080826000018054905090506000811461210557826000016001826120b991906158d8565b815481106120ca576120c961590c565b5b9060005260206000200160000160049054906101000a90047bffffffffffffffffffffffffffffffffffffffffffffffffffffffff16612108565b60005b7bffffffffffffffffffffffffffffffffffffffffffffffffffffffff16915050919050565b600063ffffffff8016821115612179576040517f08c379a000000000000000000000000000000000000000000000000000000000815260040161217090615a99565b60405180910390fd5b819050919050565b6000600a60009054906101000a900473ffffffffffffffffffffffffffffffffffffffff16905090565b60007f6e665ced000000000000000000000000000000000000000000000000000000007bffffffffffffffffffffffffffffffffffffffffffffffffffffffff1916827bffffffffffffffffffffffffffffffffffffffffffffffffffffffff1916148061221e575061221d82613206565b5b9050919050565b6000600554905090565b600061224261223c61336b565b83613485565b9050919050565b600080600061225a878787876134b8565b91509150612267816135c4565b8192505050949350505050565b600080600160008881526020019081526020016000209050600160078111156122a05761229f6149d4565b5b6122a9886112e3565b60078111156122bb576122ba6149d4565b5b146122fb576040517f08c379a00000000000000000000000000000000000000000000000000000000081526004016122f290615b2b565b60405180910390fd5b600061235a8761234a846000016040518060200160405290816000820160009054906101000a900467ffffffffffffffff1667ffffffffffffffff1667ffffffffffffffff1681525050612827565b67ffffffffffffffff1686612ed6565b90506123698888888488613790565b60008451036123cb578673ffffffffffffffffffffffffffffffffffffffff167fb8e138887d0aa13bab447e82de9d5c1777041ecd21ca36ba824ff1e6c07ddda4898884896040516123be9493929190615b4b565b60405180910390a2612422565b8673ffffffffffffffffffffffffffffffffffffffff167fe2babfbac5889a709b63bb7f598b324e08bc5a4fb9ec647fb3cbc9ec07eb87128988848989604051612419959493929190615be1565b60405180910390a25b809250505095945050505050565b600033905090565b3660008036915091509091565b600061245082613994565b15612487576040517f3db2a12a00000000000000000000000000000000000000000000000000000000815260040160405180910390fd5b60008260000160009054906101000a9004600f0b905082600101600082600f0b600f0b815260200190815260200160002054915082600101600082600f0b600f0b815260200190815260200160002060009055600181018360000160006101000a8154816fffffffffffffffffffffffffffffffff0219169083600f0b6fffffffffffffffffffffffffffffffff16021790555050919050565b612529611733565b81111561256b576040517f08c379a000000000000000000000000000000000000000000000000000000000815260040161256290615cda565b60405180910390fd5b6000612575611752565b90506000811415801561259057506000600960000180549050145b156126825760096000016040518060400160405280600063ffffffff1681526020016125bb84611e26565b7bffffffffffffffffffffffffffffffffffffffffffffffffffffffff168152509080600181540180825580915050600190039060005260206000200160009091909190915060008201518160000160006101000a81548163ffffffff021916908363ffffffff16021790555060208201518160000160046101000a8154817bffffffffffffffffffffffffffffffffffffffffffffffffffffffff02191690837bffffffffffffffffffffffffffffffffffffffffffffffffffffffff16021790555050505b612696826009611e9190919063ffffffff16565b50507f0553476bf02ef2726e8ce5ced78d63e26e602e4a2257b1f559418e24b463399781836040516126c9929190615878565b60405180910390a15050565b3073ffffffffffffffffffffffffffffffffffffffff166126f4610aff565b73ffffffffffffffffffffffffffffffffffffffff16146127b15760005b84518110156127af573073ffffffffffffffffffffffffffffffffffffffff168582815181106127455761274461590c565b5b602002602001015173ffffffffffffffffffffffffffffffffffffffff160361279e5761279d83828151811061277e5761277d61590c565b5b60200260200101518051906020012060026139c990919063ffffffff16565b5b806127a890615cfa565b9050612712565b505b5050505050565b6127c58585858585613a45565b5050505050565b3073ffffffffffffffffffffffffffffffffffffffff166127eb610aff565b73ffffffffffffffffffffffffffffffffffffffff1614612820576128106002613994565b61281f5761281e6002613ae3565b5b5b5050505050565b600081600001519050919050565b6000600454905090565b600061285585858585612850613b64565b612274565b9050949350505050565b60008061286b83613b7b565b905060046007811115612881576128806149d4565b5b816007811115612894576128936149d4565b5b146128a25780915050612a2d565b6000600b60008581526020019081526020016000205490506000801b81036128ce578192505050612a2d565b600a60009054906101000a900473ffffffffffffffffffffffffffffffffffffffff1673ffffffffffffffffffffffffffffffffffffffff16632ab0f529826040518263ffffffff1660e01b8152600401612929919061493e565b602060405180830381865afa158015612946573d6000803e3d6000fd5b505050506040513d601f19601f8201168201806040525081019061296a9190615d6e565b1561297a57600792505050612a2d565b600a60009054906101000a900473ffffffffffffffffffffffffffffffffffffffff1673ffffffffffffffffffffffffffffffffffffffff1663584b153e826040518263ffffffff1660e01b81526004016129d5919061493e565b602060405180830381865afa1580156129f2573d6000803e3d6000fd5b505050506040513d601f19601f82011682018060405250810190612a169190615d6e565b15612a2657600592505050612a2d565b6002925050505b919050565b6000438210612a76576040517f08c379a0000000000000000000000000000000000000000000000000000000008152600401612a6d90615de7565b60405180910390fd5b60008360000180549050905060005b81811015612afa576000612a998284613c8f565b905084866000018281548110612ab257612ab161590c565b5b9060005260206000200160000160009054906101000a900463ffffffff1663ffffffff161115612ae457809250612af4565b600181612af19190615822565b91505b50612a85565b60008214612b5f5784600001600183612b1391906158d8565b81548110612b2457612b2361590c565b5b9060005260206000200160000160049054906101000a90047bffffffffffffffffffffffffffffffffffffffffffffffffffffffff16612b62565b60005b7bffffffffffffffffffffffffffffffffffffffffffffffffffffffff169250505092915050565b7fc565b045403dc03c2eea82b81a0465edad9e2e7fc4d97e11421c209da93d7a9360045482604051612bbd929190615878565b60405180910390a18060048190555050565b6000612bd961193f565b612bf6612be4612430565b600143612bf191906158d8565b611cd0565b1015612c37576040517f08c379a0000000000000000000000000000000000000000000000000000000008152600401612c2e90615e79565b60405180910390fd5b6000612c4c8686868680519060200120611b12565b90508451865114612c92576040517f08c379a0000000000000000000000000000000000000000000000000000000008152600401612c8990615f0b565b60405180910390fd5b8351865114612cd6576040517f08c379a0000000000000000000000000000000000000000000000000000000008152600401612ccd90615f0b565b60405180910390fd5b6000865111612d1a576040517f08c379a0000000000000000000000000000000000000000000000000000000008152600401612d1190615f77565b60405180910390fd5b6000600160008381526020019081526020016000209050612d7a816000016040518060200160405290816000820160009054906101000a900467ffffffffffffffff1667ffffffffffffffff1667ffffffffffffffff1681525050613cb5565b612db9576040517f08c379a0000000000000000000000000000000000000000000000000000000008152600401612db090616009565b60405180910390fd5b6000612dcb612dc661124a565b613ccf565b612dd443613ccf565b612dde919061603d565b90506000612df2612ded610b20565b613ccf565b82612dfd919061603d565b9050612e158284600001613d2690919063ffffffff16565b612e2b8184600101613d2690919063ffffffff16565b7f7d84a6263ae0d98d3329bd7b46bb4e8d6f98cd35a7adb45c274c8b7fd5ebd5e084612e55612430565b8b8b8d5167ffffffffffffffff811115612e7257612e716141ec565b5b604051908082528060200260200182016040528015612ea557816020015b6060815260200190600190039081612e905790505b508c88888e604051612ebf999897969594939291906161b8565b60405180910390a183945050505050949350505050565b60007f000000000000000000000000000000000000000000000000000000000000000073ffffffffffffffffffffffffffffffffffffffff16633a46b1a885856040518363ffffffff1660e01b8152600401612f33929190616268565b602060405180830381865afa158015612f50573d6000803e3d6000fd5b505050506040513d601f19601f82011682018060405250810190612f7491906153cb565b90509392505050565b7f08f74ea46ef7894f65eabfb5e6e695de773a000b47c529ab559178069b226401600a60009054906101000a900473ffffffffffffffffffffffffffffffffffffffff1682604051612fd0929190616291565b60405180910390a180600a60006101000a81548173ffffffffffffffffffffffffffffffffffffffff021916908373ffffffffffffffffffffffffffffffffffffffff16021790555050565b6000600654905090565b606061304c848484604051806060016040528060298152602001616ab260299139613d55565b90509392505050565b60008111613098576040517f08c379a000000000000000000000000000000000000000000000000000000000815260040161308f9061632c565b60405180910390fd5b7f7e3f7f0708a84de9203036abaa450dccc85ad5ff52f78c170f3edb55cf5e8828600554826040516130cb929190615878565b60405180910390a18060058190555050565b60006130f183836130ec613b64565b612ed6565b905092915050565b7fccb45da8d5717e6c4544694297c4ba5cf151d455c9bb0ed4fc7a38411bc054616006548260405161312c929190615878565b60405180910390a18060068190555050565b6000613148611733565b61315183611470565b7f000000000000000000000000000000000000000000000000000000000000000073ffffffffffffffffffffffffffffffffffffffff16638e539e8c856040518263ffffffff1660e01b81526004016131aa91906140f1565b602060405180830381865afa1580156131c7573d6000803e3d6000fd5b505050506040513d601f19601f820116820180604052508101906131eb91906153cb565b6131f5919061634c565b6131ff91906163d5565b9050919050565b6000639a802a6d60e01b630342018160e01b635f398a1460e01b7f79dd796f000000000000000000000000000000000000000000000000000000001818187bffffffffffffffffffffffffffffffffffffffffffffffffffffffff1916827bffffffffffffffffffffffffffffffffffffffffffffffffffffffff191614806132ec57507f79dd796f000000000000000000000000000000000000000000000000000000007bffffffffffffffffffffffffffffffffffffffffffffffffffffffff1916827bffffffffffffffffffffffffffffffffffffffffffffffffffffffff1916145b8061335457507f4e2312e0000000000000000000000000000000000000000000000000000000007bffffffffffffffffffffffffffffffffffffffffffffffffffffffff1916827bffffffffffffffffffffffffffffffffffffffffffffffffffffffff1916145b80613364575061336382613e69565b5b9050919050565b60007f000000000000000000000000000000000000000000000000000000000000000073ffffffffffffffffffffffffffffffffffffffff163073ffffffffffffffffffffffffffffffffffffffff161480156133e757507f000000000000000000000000000000000000000000000000000000000000000046145b15613414577f00000000000000000000000000000000000000000000000000000000000000009050613482565b61347f7f00000000000000000000000000000000000000000000000000000000000000007f00000000000000000000000000000000000000000000000000000000000000007f0000000000000000000000000000000000000000000000000000000000000000613ed3565b90505b90565b6000828260405160200161349a92919061647e565b60405160208183030381529060405280519060200120905092915050565b6000807f7fffffffffffffffffffffffffffffff5d576e7357a4501ddfe92f46681b20a08360001c11156134f35760006003915091506135bb565b601b8560ff161415801561350b5750601c8560ff1614155b1561351d5760006004915091506135bb565b60006001878787876040516000815260200160405260405161354294939291906164b5565b6020604051602081039080840390855afa158015613564573d6000803e3d6000fd5b505050602060405103519050600073ffffffffffffffffffffffffffffffffffffffff168173ffffffffffffffffffffffffffffffffffffffff16036135b2576000600192509250506135bb565b80600092509250505b94509492505050565b600060048111156135d8576135d76149d4565b5b8160048111156135eb576135ea6149d4565b5b031561378d5760016004811115613605576136046149d4565b5b816004811115613618576136176149d4565b5b03613658576040517f08c379a000000000000000000000000000000000000000000000000000000000815260040161364f90616546565b60405180910390fd5b6002600481111561366c5761366b6149d4565b5b81600481111561367f5761367e6149d4565b5b036136bf576040517f08c379a00000000000000000000000000000000000000000000000000000000081526004016136b6906165b2565b60405180910390fd5b600360048111156136d3576136d26149d4565b5b8160048111156136e6576136e56149d4565b5b03613726576040517f08c379a000000000000000000000000000000000000000000000000000000000815260040161371d90616644565b60405180910390fd5b600480811115613739576137386149d4565b5b81600481111561374c5761374b6149d4565b5b0361378c576040517f08c379a0000000000000000000000000000000000000000000000000000000008152600401613783906166d6565b60405180910390fd5b5b50565b60006007600087815260200190815260200160002090508060030160008673ffffffffffffffffffffffffffffffffffffffff1673ffffffffffffffffffffffffffffffffffffffff16815260200190815260200160002060009054906101000a900460ff1615613836576040517f08c379a000000000000000000000000000000000000000000000000000000000815260040161382d90616768565b60405180910390fd5b60018160030160008773ffffffffffffffffffffffffffffffffffffffff1673ffffffffffffffffffffffffffffffffffffffff16815260200190815260200160002060006101000a81548160ff021916908315150217905550600060028111156138a4576138a36149d4565b5b60ff168460ff16036138d057828160000160008282546138c49190615822565b9250508190555061398c565b600160028111156138e4576138e36149d4565b5b60ff168460ff160361391057828160010160008282546139049190615822565b9250508190555061398b565b600280811115613923576139226149d4565b5b60ff168460ff160361394f57828160020160008282546139439190615822565b9250508190555061398a565b6040517f08c379a0000000000000000000000000000000000000000000000000000000008152600401613981906167fa565b60405180910390fd5b5b5b505050505050565b60008160000160009054906101000a9004600f0b600f0b8260000160109054906101000a9004600f0b600f0b13159050919050565b60008260000160109054906101000a9004600f0b90508183600101600083600f0b600f0b815260200190815260200160002081905550600181018360000160106101000a8154816fffffffffffffffffffffffffffffffff0219169083600f0b6fffffffffffffffffffffffffffffffff160217905550505050565b600a60009054906101000a900473ffffffffffffffffffffffffffffffffffffffff1673ffffffffffffffffffffffffffffffffffffffff1663e38335e5348686866000876040518763ffffffff1660e01b8152600401613aaa9594939291906156d3565b6000604051808303818588803b158015613ac357600080fd5b505af1158015613ad7573d6000803e3d6000fd5b50505050505050505050565b60008160000160006101000a8154816fffffffffffffffffffffffffffffffff0219169083600f0b6fffffffffffffffffffffffffffffffff16021790555060008160000160106101000a8154816fffffffffffffffffffffffffffffffff0219169083600f0b6fffffffffffffffffffffffffffffffff16021790555050565b606060405180602001604052806000815250905090565b6000806001600084815260200190815260200160002090508060020160009054906101000a900460ff1615613bb4576007915050613c8a565b8060020160019054906101000a900460ff1615613bd5576002915050613c8a565b6000613be0846111b8565b905060008103613c25576040517f08c379a0000000000000000000000000000000000000000000000000000000008152600401613c1c90616866565b60405180910390fd5b438110613c3757600092505050613c8a565b6000613c4285611963565b9050438110613c575760019350505050613c8a565b613c6085613f0d565b8015613c715750613c7085613f54565b5b15613c825760049350505050613c8a565b600393505050505b919050565b60006002828418613ca091906163d5565b828416613cad9190615822565b905092915050565b600080826000015167ffffffffffffffff16149050919050565b600067ffffffffffffffff8016821115613d1e576040517f08c379a0000000000000000000000000000000000000000000000000000000008152600401613d15906168f8565b60405180910390fd5b819050919050565b808260000160006101000a81548167ffffffffffffffff021916908367ffffffffffffffff1602179055505050565b606082471015613d9a576040517f08c379a0000000000000000000000000000000000000000000000000000000008152600401613d919061698a565b60405180910390fd5b613da385613f7f565b613de2576040517f08c379a0000000000000000000000000000000000000000000000000000000008152600401613dd9906169f6565b60405180910390fd5b6000808673ffffffffffffffffffffffffffffffffffffffff168587604051613e0b9190616a47565b60006040518083038185875af1925050503d8060008114613e48576040519150601f19603f3d011682016040523d82523d6000602084013e613e4d565b606091505b5091509150613e5d828286613fa2565b92505050949350505050565b60007f01ffc9a7000000000000000000000000000000000000000000000000000000007bffffffffffffffffffffffffffffffffffffffffffffffffffffffff1916827bffffffffffffffffffffffffffffffffffffffffffffffffffffffff1916149050919050565b60008383834630604051602001613eee959493929190616a5e565b6040516020818303038152906040528051906020012090509392505050565b60008060076000848152602001908152602001600020905080600201548160010154613f399190615822565b613f4a613f45856111b8565b611df0565b1115915050919050565b6000806007600084815260200190815260200160002090508060000154816001015411915050919050565b6000808273ffffffffffffffffffffffffffffffffffffffff163b119050919050565b60608315613fb257829050614002565b600083511115613fc55782518084602001fd5b816040517f08c379a0000000000000000000000000000000000000000000000000000000008152600401613ff991906144e0565b60405180910390fd5b9392505050565b6000604051905090565b600080fd5b600080fd5b60007fffffffff0000000000000000000000000000000000000000000000000000000082169050919050565b6140528161401d565b811461405d57600080fd5b50565b60008135905061406f81614049565b92915050565b60006020828403121561408b5761408a614013565b5b600061409984828501614060565b91505092915050565b60008115159050919050565b6140b7816140a2565b82525050565b60006020820190506140d260008301846140ae565b92915050565b6000819050919050565b6140eb816140d8565b82525050565b600060208201905061410660008301846140e2565b92915050565b614115816140d8565b811461412057600080fd5b50565b6000813590506141328161410c565b92915050565b600060ff82169050919050565b61414e81614138565b811461415957600080fd5b50565b60008135905061416b81614145565b92915050565b600080fd5b600080fd5b600080fd5b60008083601f84011261419657614195614171565b5b8235905067ffffffffffffffff8111156141b3576141b2614176565b5b6020830191508360018202830111156141cf576141ce61417b565b5b9250929050565b600080fd5b6000601f19601f8301169050919050565b7f4e487b7100000000000000000000000000000000000000000000000000000000600052604160045260246000fd5b614224826141db565b810181811067ffffffffffffffff82111715614243576142426141ec565b5b80604052505050565b6000614256614009565b9050614262828261421b565b919050565b600067ffffffffffffffff821115614282576142816141ec565b5b61428b826141db565b9050602081019050919050565b82818337600083830152505050565b60006142ba6142b584614267565b61424c565b9050828152602081018484840111156142d6576142d56141d6565b5b6142e1848285614298565b509392505050565b600082601f8301126142fe576142fd614171565b5b813561430e8482602086016142a7565b91505092915050565b6000819050919050565b61432a81614317565b811461433557600080fd5b50565b60008135905061434781614321565b92915050565b60008060008060008060008060e0898b03121561436d5761436c614013565b5b600061437b8b828c01614123565b985050602061438c8b828c0161415c565b975050604089013567ffffffffffffffff8111156143ad576143ac614018565b5b6143b98b828c01614180565b9650965050606089013567ffffffffffffffff8111156143dc576143db614018565b5b6143e88b828c016142e9565b94505060806143f98b828c0161415c565b93505060a061440a8b828c01614338565b92505060c061441b8b828c01614338565b9150509295985092959890939650565b60006020828403121561444157614440614013565b5b600061444f84828501614123565b91505092915050565b600081519050919050565b600082825260208201905092915050565b60005b83811015614492578082015181840152602081019050614477565b838111156144a1576000848401525b50505050565b60006144b282614458565b6144bc8185614463565b93506144cc818560208601614474565b6144d5816141db565b840191505092915050565b600060208201905081810360008301526144fa81846144a7565b905092915050565b600073ffffffffffffffffffffffffffffffffffffffff82169050919050565b600061452d82614502565b9050919050565b61453d81614522565b811461454857600080fd5b50565b60008135905061455a81614534565b92915050565b6000806000806080858703121561457a57614579614013565b5b60006145888782880161454b565b94505060206145998782880161454b565b93505060406145aa87828801614123565b925050606085013567ffffffffffffffff8111156145cb576145ca614018565b5b6145d7878288016142e9565b91505092959194509250565b6145ec8161401d565b82525050565b600060208201905061460760008301846145e3565b92915050565b600067ffffffffffffffff821115614628576146276141ec565b5b602082029050602081019050919050565b600061464c6146478461460d565b61424c565b9050808382526020820190506020840283018581111561466f5761466e61417b565b5b835b818110156146985780614684888261454b565b845260208401935050602081019050614671565b5050509392505050565b600082601f8301126146b7576146b6614171565b5b81356146c7848260208601614639565b91505092915050565b600067ffffffffffffffff8211156146eb576146ea6141ec565b5b602082029050602081019050919050565b600061470f61470a846146d0565b61424c565b905080838252602082019050602084028301858111156147325761473161417b565b5b835b8181101561475b57806147478882614123565b845260208401935050602081019050614734565b5050509392505050565b600082601f83011261477a57614779614171565b5b813561478a8482602086016146fc565b91505092915050565b600067ffffffffffffffff8211156147ae576147ad6141ec565b5b602082029050602081019050919050565b60006147d26147cd84614793565b61424c565b905080838252602082019050602084028301858111156147f5576147f461417b565b5b835b8181101561483c57803567ffffffffffffffff81111561481a57614819614171565b5b80860161482789826142e9565b855260208501945050506020810190506147f7565b5050509392505050565b600082601f83011261485b5761485a614171565b5b813561486b8482602086016147bf565b91505092915050565b6000806000806080858703121561488e5761488d614013565b5b600085013567ffffffffffffffff8111156148ac576148ab614018565b5b6148b8878288016146a2565b945050602085013567ffffffffffffffff8111156148d9576148d8614018565b5b6148e587828801614765565b935050604085013567ffffffffffffffff81111561490657614905614018565b5b61491287828801614846565b925050606061492387828801614338565b91505092959194509250565b61493881614317565b82525050565b6000602082019050614953600083018461492f565b92915050565b600080600080600060a0868803121561497557614974614013565b5b600061498388828901614123565b95505060206149948882890161415c565b94505060406149a58882890161415c565b93505060606149b688828901614338565b92505060806149c788828901614338565b9150509295509295909350565b7f4e487b7100000000000000000000000000000000000000000000000000000000600052602160045260246000fd5b60088110614a1457614a136149d4565b5b50565b6000819050614a2582614a03565b919050565b6000614a3582614a17565b9050919050565b614a4581614a2a565b82525050565b6000602082019050614a606000830184614a3c565b92915050565b60008060408385031215614a7d57614a7c614013565b5b6000614a8b85828601614123565b9250506020614a9c8582860161454b565b9150509250929050565b6000606082019050614abb60008301866140e2565b614ac860208301856140e2565b614ad560408301846140e2565b949350505050565b60008060408385031215614af457614af3614013565b5b6000614b0285828601614123565b9250506020614b138582860161415c565b9150509250929050565b600080600080600060808688031215614b3957614b38614013565b5b6000614b4788828901614123565b9550506020614b588882890161415c565b945050604086013567ffffffffffffffff811115614b7957614b78614018565b5b614b8588828901614180565b9350935050606086013567ffffffffffffffff811115614ba857614ba7614018565b5b614bb4888289016142e9565b9150509295509295909350565b60008060008060608587031215614bdb57614bda614013565b5b6000614be987828801614123565b9450506020614bfa8782880161415c565b935050604085013567ffffffffffffffff811115614c1b57614c1a614018565b5b614c2787828801614180565b925092505092959194509250565b600067ffffffffffffffff821115614c5057614c4f6141ec565b5b614c59826141db565b9050602081019050919050565b6000614c79614c7484614c35565b61424c565b905082815260208101848484011115614c9557614c946141d6565b5b614ca0848285614298565b509392505050565b600082601f830112614cbd57614cbc614171565b5b8135614ccd848260208601614c66565b91505092915050565b60008060008060808587031215614cf057614cef614013565b5b600085013567ffffffffffffffff811115614d0e57614d0d614018565b5b614d1a878288016146a2565b945050602085013567ffffffffffffffff811115614d3b57614d3a614018565b5b614d4787828801614765565b935050604085013567ffffffffffffffff811115614d6857614d67614018565b5b614d7487828801614846565b925050606085013567ffffffffffffffff811115614d9557614d94614018565b5b614da187828801614ca8565b91505092959194509250565b600080600060608486031215614dc657614dc5614013565b5b6000614dd48682870161454b565b9350506020614de586828701614123565b925050604084013567ffffffffffffffff811115614e0657614e05614018565b5b614e12868287016142e9565b9150509250925092565b6000614e2782614502565b9050919050565b6000614e3982614e1c565b9050919050565b614e4981614e2e565b8114614e5457600080fd5b50565b600081359050614e6681614e40565b92915050565b600060208284031215614e8257614e81614013565b5b6000614e9084828501614e57565b91505092915050565b600080600080600060a08688031215614eb557614eb4614013565b5b6000614ec38882890161454b565b9550506020614ed48882890161454b565b945050604086013567ffffffffffffffff811115614ef557614ef4614018565b5b614f0188828901614765565b935050606086013567ffffffffffffffff811115614f2257614f21614018565b5b614f2e88828901614765565b925050608086013567ffffffffffffffff811115614f4f57614f4e614018565b5b614f5b888289016142e9565b9150509295509295909350565b60008083601f840112614f7e57614f7d614171565b5b8235905067ffffffffffffffff811115614f9b57614f9a614176565b5b602083019150836001820283011115614fb757614fb661417b565b5b9250929050565b60008060008060608587031215614fd857614fd7614013565b5b6000614fe68782880161454b565b9450506020614ff787828801614123565b935050604085013567ffffffffffffffff81111561501857615017614018565b5b61502487828801614f68565b925092505092959194509250565b61503b81614522565b82525050565b60006020820190506150566000830184615032565b92915050565b6000806040838503121561507357615072614013565b5b60006150818582860161454b565b925050602061509285828601614123565b9150509250929050565b600080600080600060a086880312156150b8576150b7614013565b5b60006150c68882890161454b565b95505060206150d78882890161454b565b94505060406150e888828901614123565b93505060606150f988828901614123565b925050608086013567ffffffffffffffff81111561511a57615119614018565b5b615126888289016142e9565b9150509295509295909350565b6000819050919050565b600061515861515361514e84614502565b615133565b614502565b9050919050565b600061516a8261513d565b9050919050565b600061517c8261515f565b9050919050565b61518c81615171565b82525050565b60006020820190506151a76000830184615183565b92915050565b600081905092915050565b60006151c483856151ad565b93506151d1838584614298565b82840190509392505050565b60006151ea8284866151b8565b91508190509392505050565b6151ff81614138565b82525050565b600060a08201905061521a600083018861492f565b61522760208301876140e2565b61523460408301866151f6565b615241606083018561492f565b61524e608083018461492f565b9695505050505050565b7f476f7665726e6f723a206f6e6c79476f7665726e616e63650000000000000000600082015250565b600061528e601883614463565b915061529982615258565b602082019050919050565b600060208201905081810360008301526152bd81615281565b9050919050565b7f4e487b7100000000000000000000000000000000000000000000000000000000600052602260045260246000fd5b6000600282049050600182168061530b57607f821691505b60208210810361531e5761531d6152c4565b5b50919050565b7f476f7665726e6f723a2070726f706f73616c206e6f742073756363657373667560008201527f6c00000000000000000000000000000000000000000000000000000000000000602082015250565b6000615380602183614463565b915061538b82615324565b604082019050919050565b600060208201905081810360008301526153af81615373565b9050919050565b6000815190506153c58161410c565b92915050565b6000602082840312156153e1576153e0614013565b5b60006153ef848285016153b6565b91505092915050565b600081519050919050565b600082825260208201905092915050565b6000819050602082019050919050565b61542d81614522565b82525050565b600061543f8383615424565b60208301905092915050565b6000602082019050919050565b6000615463826153f8565b61546d8185615403565b935061547883615414565b8060005b838110156154a95781516154908882615433565b975061549b8361544b565b92505060018101905061547c565b5085935050505092915050565b600081519050919050565b600082825260208201905092915050565b6000819050602082019050919050565b6154eb816140d8565b82525050565b60006154fd83836154e2565b60208301905092915050565b6000602082019050919050565b6000615521826154b6565b61552b81856154c1565b9350615536836154d2565b8060005b8381101561556757815161554e88826154f1565b975061555983615509565b92505060018101905061553a565b5085935050505092915050565b600081519050919050565b600082825260208201905092915050565b6000819050602082019050919050565b600081519050919050565b600082825260208201905092915050565b60006155c7826155a0565b6155d181856155ab565b93506155e1818560208601614474565b6155ea816141db565b840191505092915050565b600061560183836155bc565b905092915050565b6000602082019050919050565b600061562182615574565b61562b818561557f565b93508360208202850161563d85615590565b8060005b85811015615679578484038952815161565a85826155f5565b945061566583615609565b925060208a01995050600181019050615641565b50829750879550505050505092915050565b6000819050919050565b60008160001b9050919050565b60006156bd6156b86156b38461568b565b615695565b614317565b9050919050565b6156cd816156a2565b82525050565b600060a08201905081810360008301526156ed8188615458565b905081810360208301526157018187615516565b905081810360408301526157158186615616565b905061572460608301856156c4565b615731608083018461492f565b9695505050505050565b60008151905061574a81614321565b92915050565b60006020828403121561576657615765614013565b5b60006157748482850161573b565b91505092915050565b600060c08201905081810360008301526157978189615458565b905081810360208301526157ab8188615516565b905081810360408301526157bf8187615616565b90506157ce60608301866156c4565b6157db608083018561492f565b6157e860a08301846140e2565b979650505050505050565b7f4e487b7100000000000000000000000000000000000000000000000000000000600052601160045260246000fd5b600061582d826140d8565b9150615838836140d8565b9250827fffffffffffffffffffffffffffffffffffffffffffffffffffffffffffffffff0382111561586d5761586c6157f3565b5b828201905092915050565b600060408201905061588d60008301856140e2565b61589a60208301846140e2565b9392505050565b60006060820190506158b6600083018661492f565b6158c360208301856140e2565b6158d060408301846151f6565b949350505050565b60006158e3826140d8565b91506158ee836140d8565b925082821015615901576159006157f3565b5b828203905092915050565b7f4e487b7100000000000000000000000000000000000000000000000000000000600052603260045260246000fd5b600060808201905081810360008301526159558187615458565b905081810360208301526159698186615516565b9050818103604083015261597d8185615616565b905061598c606083018461492f565b95945050505050565b7f53616665436173743a2076616c756520646f65736e27742066697420696e203260008201527f3234206269747300000000000000000000000000000000000000000000000000602082015250565b60006159f1602783614463565b91506159fc82615995565b604082019050919050565b60006020820190508181036000830152615a20816159e4565b9050919050565b7f53616665436173743a2076616c756520646f65736e27742066697420696e203360008201527f3220626974730000000000000000000000000000000000000000000000000000602082015250565b6000615a83602683614463565b9150615a8e82615a27565b604082019050919050565b60006020820190508181036000830152615ab281615a76565b9050919050565b7f476f7665726e6f723a20766f7465206e6f742063757272656e746c792061637460008201527f6976650000000000000000000000000000000000000000000000000000000000602082015250565b6000615b15602383614463565b9150615b2082615ab9565b604082019050919050565b60006020820190508181036000830152615b4481615b08565b9050919050565b6000608082019050615b6060008301876140e2565b615b6d60208301866151f6565b615b7a60408301856140e2565b8181036060830152615b8c81846144a7565b905095945050505050565b600082825260208201905092915050565b6000615bb3826155a0565b615bbd8185615b97565b9350615bcd818560208601614474565b615bd6816141db565b840191505092915050565b600060a082019050615bf660008301886140e2565b615c0360208301876151f6565b615c1060408301866140e2565b8181036060830152615c2281856144a7565b90508181036080830152615c368184615ba8565b90509695505050505050565b7f476f7665726e6f72566f74657351756f72756d4672616374696f6e3a2071756f60008201527f72756d4e756d657261746f72206f7665722071756f72756d44656e6f6d696e6160208201527f746f720000000000000000000000000000000000000000000000000000000000604082015250565b6000615cc4604383614463565b9150615ccf82615c42565b606082019050919050565b60006020820190508181036000830152615cf381615cb7565b9050919050565b6000615d05826140d8565b91507fffffffffffffffffffffffffffffffffffffffffffffffffffffffffffffffff8203615d3757615d366157f3565b5b600182019050919050565b615d4b816140a2565b8114615d5657600080fd5b50565b600081519050615d6881615d42565b92915050565b600060208284031215615d8457615d83614013565b5b6000615d9284828501615d59565b91505092915050565b7f436865636b706f696e74733a20626c6f636b206e6f7420796574206d696e6564600082015250565b6000615dd1602083614463565b9150615ddc82615d9b565b602082019050919050565b60006020820190508181036000830152615e0081615dc4565b9050919050565b7f476f7665726e6f723a2070726f706f73657220766f7465732062656c6f77207060008201527f726f706f73616c207468726573686f6c64000000000000000000000000000000602082015250565b6000615e63603183614463565b9150615e6e82615e07565b604082019050919050565b60006020820190508181036000830152615e9281615e56565b9050919050565b7f476f7665726e6f723a20696e76616c69642070726f706f73616c206c656e677460008201527f6800000000000000000000000000000000000000000000000000000000000000602082015250565b6000615ef5602183614463565b9150615f0082615e99565b604082019050919050565b60006020820190508181036000830152615f2481615ee8565b9050919050565b7f476f7665726e6f723a20656d7074792070726f706f73616c0000000000000000600082015250565b6000615f61601883614463565b9150615f6c82615f2b565b602082019050919050565b60006020820190508181036000830152615f9081615f54565b9050919050565b7f476f7665726e6f723a2070726f706f73616c20616c726561647920657869737460008201527f7300000000000000000000000000000000000000000000000000000000000000602082015250565b6000615ff3602183614463565b9150615ffe82615f97565b604082019050919050565b6000602082019050818103600083015261602281615fe6565b9050919050565b600067ffffffffffffffff82169050919050565b600061604882616029565b915061605383616029565b92508267ffffffffffffffff038211156160705761606f6157f3565b5b828201905092915050565b600081519050919050565b600082825260208201905092915050565b6000819050602082019050919050565b600082825260208201905092915050565b60006160c382614458565b6160cd81856160a7565b93506160dd818560208601614474565b6160e6816141db565b840191505092915050565b60006160fd83836160b8565b905092915050565b6000602082019050919050565b600061611d8261607b565b6161278185616086565b93508360208202850161613985616097565b8060005b85811015616175578484038952815161615685826160f1565b945061616183616105565b925060208a0199505060018101905061613d565b50829750879550505050505092915050565b60006161a261619d61619884616029565b615133565b6140d8565b9050919050565b6161b281616187565b82525050565b6000610120820190506161ce600083018c6140e2565b6161db602083018b615032565b81810360408301526161ed818a615458565b905081810360608301526162018189615516565b905081810360808301526162158188616112565b905081810360a08301526162298187615616565b905061623860c08301866161a9565b61624560e08301856161a9565b81810361010083015261625881846144a7565b90509a9950505050505050505050565b600060408201905061627d6000830185615032565b61628a60208301846140e2565b9392505050565b60006040820190506162a66000830185615032565b6162b36020830184615032565b9392505050565b7f476f7665726e6f7253657474696e67733a20766f74696e6720706572696f642060008201527f746f6f206c6f7700000000000000000000000000000000000000000000000000602082015250565b6000616316602783614463565b9150616321826162ba565b604082019050919050565b6000602082019050818103600083015261634581616309565b9050919050565b6000616357826140d8565b9150616362836140d8565b9250817fffffffffffffffffffffffffffffffffffffffffffffffffffffffffffffffff048311821515161561639b5761639a6157f3565b5b828202905092915050565b7f4e487b7100000000000000000000000000000000000000000000000000000000600052601260045260246000fd5b60006163e0826140d8565b91506163eb836140d8565b9250826163fb576163fa6163a6565b5b828204905092915050565b600081905092915050565b7f1901000000000000000000000000000000000000000000000000000000000000600082015250565b6000616447600283616406565b915061645282616411565b600282019050919050565b6000819050919050565b61647861647382614317565b61645d565b82525050565b60006164898261643a565b91506164958285616467565b6020820191506164a58284616467565b6020820191508190509392505050565b60006080820190506164ca600083018761492f565b6164d760208301866151f6565b6164e4604083018561492f565b6164f1606083018461492f565b95945050505050565b7f45434453413a20696e76616c6964207369676e61747572650000000000000000600082015250565b6000616530601883614463565b915061653b826164fa565b602082019050919050565b6000602082019050818103600083015261655f81616523565b9050919050565b7f45434453413a20696e76616c6964207369676e6174757265206c656e67746800600082015250565b600061659c601f83614463565b91506165a782616566565b602082019050919050565b600060208201905081810360008301526165cb8161658f565b9050919050565b7f45434453413a20696e76616c6964207369676e6174757265202773272076616c60008201527f7565000000000000000000000000000000000000000000000000000000000000602082015250565b600061662e602283614463565b9150616639826165d2565b604082019050919050565b6000602082019050818103600083015261665d81616621565b9050919050565b7f45434453413a20696e76616c6964207369676e6174757265202776272076616c60008201527f7565000000000000000000000000000000000000000000000000000000000000602082015250565b60006166c0602283614463565b91506166cb82616664565b604082019050919050565b600060208201905081810360008301526166ef816166b3565b9050919050565b7f476f7665726e6f72566f74696e6753696d706c653a20766f746520616c72656160008201527f6479206361737400000000000000000000000000000000000000000000000000602082015250565b6000616752602783614463565b915061675d826166f6565b604082019050919050565b6000602082019050818103600083015261678181616745565b9050919050565b7f476f7665726e6f72566f74696e6753696d706c653a20696e76616c696420766160008201527f6c756520666f7220656e756d20566f7465547970650000000000000000000000602082015250565b60006167e4603583614463565b91506167ef82616788565b604082019050919050565b60006020820190508181036000830152616813816167d7565b9050919050565b7f476f7665726e6f723a20756e6b6e6f776e2070726f706f73616c206964000000600082015250565b6000616850601d83614463565b915061685b8261681a565b602082019050919050565b6000602082019050818103600083015261687f81616843565b9050919050565b7f53616665436173743a2076616c756520646f65736e27742066697420696e203660008201527f3420626974730000000000000000000000000000000000000000000000000000602082015250565b60006168e2602683614463565b91506168ed82616886565b604082019050919050565b60006020820190508181036000830152616911816168d5565b9050919050565b7f416464726573733a20696e73756666696369656e742062616c616e636520666f60008201527f722063616c6c0000000000000000000000000000000000000000000000000000602082015250565b6000616974602683614463565b915061697f82616918565b604082019050919050565b600060208201905081810360008301526169a381616967565b9050919050565b7f416464726573733a2063616c6c20746f206e6f6e2d636f6e7472616374000000600082015250565b60006169e0601d83614463565b91506169eb826169aa565b602082019050919050565b60006020820190508181036000830152616a0f816169d3565b9050919050565b6000616a21826155a0565b616a2b81856151ad565b9350616a3b818560208601614474565b80840191505092915050565b6000616a538284616a16565b915081905092915050565b600060a082019050616a73600083018861492f565b616a80602083018761492f565b616a8d604083018661492f565b616a9a60608301856140e2565b616aa76080830184615032565b969550505050505056fe416464726573733a206c6f772d6c6576656c2063616c6c20776974682076616c7565206661696c6564a2646970667358221220c339a58cca1c04b50fe347d1bce674a0a4ab2d47a1e5595b76872c9009da251864736f6c634300080d0033",
  "devdoc": {
    "errors": {
      "Empty()": [
        {
          "details": "An operation (e.g. {front}) couldn't be completed due to the queue being empty."
        }
      ]
    },
    "kind": "dev",
    "methods": {
      "COUNTING_MODE()": {
        "details": "See {IGovernor-COUNTING_MODE}."
      },
      "castVote(uint256,uint8)": {
        "details": "See {IGovernor-castVote}."
      },
      "castVoteBySig(uint256,uint8,uint8,bytes32,bytes32)": {
        "details": "See {IGovernor-castVoteBySig}."
      },
      "castVoteWithReason(uint256,uint8,string)": {
        "details": "See {IGovernor-castVoteWithReason}."
      },
      "castVoteWithReasonAndParams(uint256,uint8,string,bytes)": {
        "details": "See {IGovernor-castVoteWithReasonAndParams}."
      },
      "castVoteWithReasonAndParamsBySig(uint256,uint8,string,bytes,uint8,bytes32,bytes32)": {
        "details": "See {IGovernor-castVoteWithReasonAndParamsBySig}."
      },
      "execute(address[],uint256[],bytes[],bytes32)": {
        "details": "See {IGovernor-execute}."
      },
      "getVotesWithParams(address,uint256,bytes)": {
        "details": "See {IGovernor-getVotesWithParams}."
      },
      "hasVoted(uint256,address)": {
        "details": "See {IGovernor-hasVoted}."
      },
      "hashProposal(address[],uint256[],bytes[],bytes32)": {
        "details": "See {IGovernor-hashProposal}. The proposal id is produced by hashing the ABI encoded `targets` array, the `values` array, the `calldatas` array and the descriptionHash (bytes32 which itself is the keccak256 hash of the description string). This proposal id can be produced from the proposal data which is part of the {ProposalCreated} event. It can even be computed in advance, before the proposal is submitted. Note that the chainId and the governor address are not part of the proposal id computation. Consequently, the same proposal (with same operation and same description) will have the same id if submitted on multiple governors across multiple networks. This also means that in order to execute the same operation twice (on the same governor) the proposer will have to change the description in order to avoid proposal id conflicts."
      },
      "name()": {
        "details": "See {IGovernor-name}."
      },
      "onERC1155BatchReceived(address,address,uint256[],uint256[],bytes)": {
        "details": "See {IERC1155Receiver-onERC1155BatchReceived}."
      },
      "onERC1155Received(address,address,uint256,uint256,bytes)": {
        "details": "See {IERC1155Receiver-onERC1155Received}."
      },
      "onERC721Received(address,address,uint256,bytes)": {
        "details": "See {IERC721Receiver-onERC721Received}."
      },
      "proposalDeadline(uint256)": {
        "details": "See {IGovernor-proposalDeadline}."
      },
      "proposalEta(uint256)": {
        "details": "Public accessor to check the eta of a queued proposal"
      },
      "proposalSnapshot(uint256)": {
        "details": "See {IGovernor-proposalSnapshot}."
      },
      "proposalVotes(uint256)": {
        "details": "Accessor to the internal vote counts."
      },
      "queue(address[],uint256[],bytes[],bytes32)": {
        "details": "Function to queue a proposal to the timelock."
      },
      "quorumDenominator()": {
        "details": "Returns the quorum denominator. Defaults to 100, but may be overridden."
      },
      "quorumNumerator()": {
        "details": "Returns the current quorum numerator. See {quorumDenominator}."
      },
      "quorumNumerator(uint256)": {
        "details": "Returns the quorum numerator at a specific block number. See {quorumDenominator}."
      },
      "relay(address,uint256,bytes)": {
        "details": "Relays a transaction or function call to an arbitrary target. In cases where the governance executor is some contract other than the governor itself, like when using a timelock, this function can be invoked in a governance proposal to recover tokens or Ether that was sent to the governor contract by mistake. Note that if the executor is simply the governor itself, use of `relay` is redundant."
      },
      "setProposalThreshold(uint256)": {
        "details": "Update the proposal threshold. This operation can only be performed through a governance proposal. Emits a {ProposalThresholdSet} event."
      },
      "setVotingDelay(uint256)": {
        "details": "Update the voting delay. This operation can only be performed through a governance proposal. Emits a {VotingDelaySet} event."
      },
      "setVotingPeriod(uint256)": {
        "details": "Update the voting period. This operation can only be performed through a governance proposal. Emits a {VotingPeriodSet} event."
      },
      "timelock()": {
        "details": "Public accessor to check the address of the timelock"
      },
      "updateQuorumNumerator(uint256)": {
        "details": "Changes the quorum numerator. Emits a {QuorumNumeratorUpdated} event. Requirements: - Must be called through a governance proposal. - New numerator must be smaller or equal to the denominator."
      },
      "updateTimelock(address)": {
        "details": "Public endpoint to update the underlying timelock instance. Restricted to the timelock itself, so updates must be proposed, scheduled, and executed through governance proposals. CAUTION: It is not recommended to change the timelock while there are other queued governance proposals."
      },
      "version()": {
        "details": "See {IGovernor-version}."
      }
    },
    "version": 1
  },
  "userdoc": {
    "kind": "user",
    "methods": {},
    "version": 1
  },
  "storageLayout": {
    "storage": [
      {
        "astId": 565,
        "contract": "contracts/governance_standard/GovernorContract.sol:GovernorContract",
        "label": "_name",
        "offset": 0,
        "slot": "0",
        "type": "t_string_storage"
      },
      {
        "astId": 570,
        "contract": "contracts/governance_standard/GovernorContract.sol:GovernorContract",
        "label": "_proposals",
        "offset": 0,
        "slot": "1",
        "type": "t_mapping(t_uint256,t_struct(ProposalCore)563_storage)"
      },
      {
        "astId": 573,
        "contract": "contracts/governance_standard/GovernorContract.sol:GovernorContract",
        "label": "_governanceCall",
        "offset": 0,
        "slot": "2",
        "type": "t_struct(Bytes32Deque)9778_storage"
      },
      {
        "astId": 3238,
        "contract": "contracts/governance_standard/GovernorContract.sol:GovernorContract",
        "label": "_votingDelay",
        "offset": 0,
        "slot": "4",
        "type": "t_uint256"
      },
      {
        "astId": 3240,
        "contract": "contracts/governance_standard/GovernorContract.sol:GovernorContract",
        "label": "_votingPeriod",
        "offset": 0,
        "slot": "5",
        "type": "t_uint256"
      },
      {
        "astId": 3242,
        "contract": "contracts/governance_standard/GovernorContract.sol:GovernorContract",
        "label": "_proposalThreshold",
        "offset": 0,
        "slot": "6",
        "type": "t_uint256"
      },
      {
        "astId": 3030,
        "contract": "contracts/governance_standard/GovernorContract.sol:GovernorContract",
        "label": "_proposalVotes",
        "offset": 0,
        "slot": "7",
        "type": "t_mapping(t_uint256,t_struct(ProposalVote)3025_storage)"
      },
      {
        "astId": 3841,
        "contract": "contracts/governance_standard/GovernorContract.sol:GovernorContract",
        "label": "_quorumNumerator",
        "offset": 0,
        "slot": "8",
        "type": "t_uint256"
      },
      {
        "astId": 3844,
        "contract": "contracts/governance_standard/GovernorContract.sol:GovernorContract",
        "label": "_quorumNumeratorHistory",
        "offset": 0,
        "slot": "9",
        "type": "t_struct(History)6052_storage"
      },
      {
        "astId": 3421,
        "contract": "contracts/governance_standard/GovernorContract.sol:GovernorContract",
        "label": "_timelock",
        "offset": 0,
        "slot": "10",
        "type": "t_contract(TimelockController)3004"
      },
      {
        "astId": 3425,
        "contract": "contracts/governance_standard/GovernorContract.sol:GovernorContract",
        "label": "_timelockIds",
        "offset": 0,
        "slot": "11",
        "type": "t_mapping(t_uint256,t_bytes32)"
      }
    ],
    "types": {
      "t_address": {
        "encoding": "inplace",
        "label": "address",
        "numberOfBytes": "20"
      },
      "t_array(t_struct(Checkpoint)6047_storage)dyn_storage": {
        "base": "t_struct(Checkpoint)6047_storage",
        "encoding": "dynamic_array",
        "label": "struct Checkpoints.Checkpoint[]",
        "numberOfBytes": "32"
      },
      "t_bool": {
        "encoding": "inplace",
        "label": "bool",
        "numberOfBytes": "1"
      },
      "t_bytes32": {
        "encoding": "inplace",
        "label": "bytes32",
        "numberOfBytes": "32"
      },
      "t_contract(TimelockController)3004": {
        "encoding": "inplace",
        "label": "contract TimelockController",
        "numberOfBytes": "20"
      },
      "t_int128": {
        "encoding": "inplace",
        "label": "int128",
        "numberOfBytes": "16"
      },
      "t_mapping(t_address,t_bool)": {
        "encoding": "mapping",
        "key": "t_address",
        "label": "mapping(address => bool)",
        "numberOfBytes": "32",
        "value": "t_bool"
      },
      "t_mapping(t_int128,t_bytes32)": {
        "encoding": "mapping",
        "key": "t_int128",
        "label": "mapping(int128 => bytes32)",
        "numberOfBytes": "32",
        "value": "t_bytes32"
      },
      "t_mapping(t_uint256,t_bytes32)": {
        "encoding": "mapping",
        "key": "t_uint256",
        "label": "mapping(uint256 => bytes32)",
        "numberOfBytes": "32",
        "value": "t_bytes32"
      },
      "t_mapping(t_uint256,t_struct(ProposalCore)563_storage)": {
        "encoding": "mapping",
        "key": "t_uint256",
        "label": "mapping(uint256 => struct Governor.ProposalCore)",
        "numberOfBytes": "32",
        "value": "t_struct(ProposalCore)563_storage"
      },
      "t_mapping(t_uint256,t_struct(ProposalVote)3025_storage)": {
        "encoding": "mapping",
        "key": "t_uint256",
        "label": "mapping(uint256 => struct GovernorCountingSimple.ProposalVote)",
        "numberOfBytes": "32",
        "value": "t_struct(ProposalVote)3025_storage"
      },
      "t_string_storage": {
        "encoding": "bytes",
        "label": "string",
        "numberOfBytes": "32"
      },
      "t_struct(BlockNumber)6704_storage": {
        "encoding": "inplace",
        "label": "struct Timers.BlockNumber",
        "members": [
          {
            "astId": 6703,
            "contract": "contracts/governance_standard/GovernorContract.sol:GovernorContract",
            "label": "_deadline",
            "offset": 0,
            "slot": "0",
            "type": "t_uint64"
          }
        ],
        "numberOfBytes": "32"
      },
      "t_struct(Bytes32Deque)9778_storage": {
        "encoding": "inplace",
        "label": "struct DoubleEndedQueue.Bytes32Deque",
        "members": [
          {
            "astId": 9771,
            "contract": "contracts/governance_standard/GovernorContract.sol:GovernorContract",
            "label": "_begin",
            "offset": 0,
            "slot": "0",
            "type": "t_int128"
          },
          {
            "astId": 9773,
            "contract": "contracts/governance_standard/GovernorContract.sol:GovernorContract",
            "label": "_end",
            "offset": 16,
            "slot": "0",
            "type": "t_int128"
          },
          {
            "astId": 9777,
            "contract": "contracts/governance_standard/GovernorContract.sol:GovernorContract",
            "label": "_data",
            "offset": 0,
            "slot": "1",
            "type": "t_mapping(t_int128,t_bytes32)"
          }
        ],
        "numberOfBytes": "64"
      },
      "t_struct(Checkpoint)6047_storage": {
        "encoding": "inplace",
        "label": "struct Checkpoints.Checkpoint",
        "members": [
          {
            "astId": 6044,
            "contract": "contracts/governance_standard/GovernorContract.sol:GovernorContract",
            "label": "_blockNumber",
            "offset": 0,
            "slot": "0",
            "type": "t_uint32"
          },
          {
            "astId": 6046,
            "contract": "contracts/governance_standard/GovernorContract.sol:GovernorContract",
            "label": "_value",
            "offset": 4,
            "slot": "0",
            "type": "t_uint224"
          }
        ],
        "numberOfBytes": "32"
      },
      "t_struct(History)6052_storage": {
        "encoding": "inplace",
        "label": "struct Checkpoints.History",
        "members": [
          {
            "astId": 6051,
            "contract": "contracts/governance_standard/GovernorContract.sol:GovernorContract",
            "label": "_checkpoints",
            "offset": 0,
            "slot": "0",
            "type": "t_array(t_struct(Checkpoint)6047_storage)dyn_storage"
          }
        ],
        "numberOfBytes": "32"
      },
      "t_struct(ProposalCore)563_storage": {
        "encoding": "inplace",
        "label": "struct Governor.ProposalCore",
        "members": [
          {
            "astId": 555,
            "contract": "contracts/governance_standard/GovernorContract.sol:GovernorContract",
            "label": "voteStart",
            "offset": 0,
            "slot": "0",
            "type": "t_struct(BlockNumber)6704_storage"
          },
          {
            "astId": 558,
            "contract": "contracts/governance_standard/GovernorContract.sol:GovernorContract",
            "label": "voteEnd",
            "offset": 0,
            "slot": "1",
            "type": "t_struct(BlockNumber)6704_storage"
          },
          {
            "astId": 560,
            "contract": "contracts/governance_standard/GovernorContract.sol:GovernorContract",
            "label": "executed",
            "offset": 0,
            "slot": "2",
            "type": "t_bool"
          },
          {
            "astId": 562,
            "contract": "contracts/governance_standard/GovernorContract.sol:GovernorContract",
            "label": "canceled",
            "offset": 1,
            "slot": "2",
            "type": "t_bool"
          }
        ],
        "numberOfBytes": "96"
      },
      "t_struct(ProposalVote)3025_storage": {
        "encoding": "inplace",
        "label": "struct GovernorCountingSimple.ProposalVote",
        "members": [
          {
            "astId": 3016,
            "contract": "contracts/governance_standard/GovernorContract.sol:GovernorContract",
            "label": "againstVotes",
            "offset": 0,
            "slot": "0",
            "type": "t_uint256"
          },
          {
            "astId": 3018,
            "contract": "contracts/governance_standard/GovernorContract.sol:GovernorContract",
            "label": "forVotes",
            "offset": 0,
            "slot": "1",
            "type": "t_uint256"
          },
          {
            "astId": 3020,
            "contract": "contracts/governance_standard/GovernorContract.sol:GovernorContract",
            "label": "abstainVotes",
            "offset": 0,
            "slot": "2",
            "type": "t_uint256"
          },
          {
            "astId": 3024,
            "contract": "contracts/governance_standard/GovernorContract.sol:GovernorContract",
            "label": "hasVoted",
            "offset": 0,
            "slot": "3",
            "type": "t_mapping(t_address,t_bool)"
          }
        ],
        "numberOfBytes": "128"
      },
      "t_uint224": {
        "encoding": "inplace",
        "label": "uint224",
        "numberOfBytes": "28"
      },
      "t_uint256": {
        "encoding": "inplace",
        "label": "uint256",
        "numberOfBytes": "32"
      },
      "t_uint32": {
        "encoding": "inplace",
        "label": "uint32",
        "numberOfBytes": "4"
      },
      "t_uint64": {
        "encoding": "inplace",
        "label": "uint64",
        "numberOfBytes": "8"
      }
    }
  }
}